{
  "contractName": "VaccinationLog",
  "abi": [
    {
      "anonymous": false,
      "inputs": [
        {
          "indexed": true,
          "internalType": "uint256",
          "name": "id",
          "type": "uint256"
        }
      ],
      "name": "PatientAdded",
      "type": "event"
    },
    {
      "anonymous": false,
      "inputs": [
        {
          "indexed": true,
          "internalType": "uint256",
          "name": "patientId",
          "type": "uint256"
        },
        {
          "indexed": true,
          "internalType": "uint256",
          "name": "vaccineId",
          "type": "uint256"
        },
        {
          "indexed": true,
          "internalType": "uint256",
          "name": "vaccinatorId",
          "type": "uint256"
        }
      ],
      "name": "VaccinationDoseAdded",
      "type": "event"
    },
    {
      "anonymous": false,
      "inputs": [
        {
          "indexed": true,
          "internalType": "uint256",
          "name": "id",
          "type": "uint256"
        }
      ],
      "name": "VaccinatorAdded",
      "type": "event"
    },
    {
      "anonymous": false,
      "inputs": [
        {
          "indexed": true,
          "internalType": "uint256",
          "name": "id",
          "type": "uint256"
        }
      ],
      "name": "VaccineAdded",
      "type": "event"
    },
    {
      "inputs": [
        {
          "internalType": "uint256",
          "name": "",
          "type": "uint256"
        },
        {
          "internalType": "uint256",
          "name": "",
          "type": "uint256"
        }
      ],
      "name": "patientVaccinations",
      "outputs": [
        {
          "internalType": "string",
          "name": "date",
          "type": "string"
        },
        {
          "internalType": "uint256",
          "name": "vaccineId",
          "type": "uint256"
        },
        {
          "internalType": "uint256",
          "name": "vaccinatorId",
          "type": "uint256"
        }
      ],
      "stateMutability": "view",
      "type": "function"
    },
    {
      "inputs": [
        {
          "internalType": "uint256",
          "name": "",
          "type": "uint256"
        }
      ],
      "name": "patients",
      "outputs": [
        {
          "internalType": "uint256",
          "name": "id",
          "type": "uint256"
        },
        {
          "internalType": "string",
          "name": "name",
          "type": "string"
        },
        {
          "internalType": "uint256",
          "name": "age",
          "type": "uint256"
        },
        {
          "internalType": "string",
          "name": "location",
          "type": "string"
        },
        {
          "internalType": "enum VaccinationLog.Gender",
          "name": "gender",
          "type": "uint8"
        }
      ],
      "stateMutability": "view",
      "type": "function"
    },
    {
      "inputs": [],
      "name": "patientsCount",
      "outputs": [
        {
          "internalType": "uint256",
          "name": "",
          "type": "uint256"
        }
      ],
      "stateMutability": "view",
      "type": "function"
    },
    {
      "inputs": [],
      "name": "vaccinationDoseCount",
      "outputs": [
        {
          "internalType": "uint256",
          "name": "",
          "type": "uint256"
        }
      ],
      "stateMutability": "view",
      "type": "function"
    },
    {
      "inputs": [
        {
          "internalType": "uint256",
          "name": "",
          "type": "uint256"
        }
      ],
      "name": "vaccinators",
      "outputs": [
        {
          "internalType": "uint256",
          "name": "id",
          "type": "uint256"
        },
        {
          "internalType": "uint256",
          "name": "licenseNumber",
          "type": "uint256"
        },
        {
          "internalType": "string",
          "name": "name",
          "type": "string"
        }
      ],
      "stateMutability": "view",
      "type": "function"
    },
    {
      "inputs": [],
      "name": "vaccinatorsCount",
      "outputs": [
        {
          "internalType": "uint256",
          "name": "",
          "type": "uint256"
        }
      ],
      "stateMutability": "view",
      "type": "function"
    },
    {
      "inputs": [
        {
          "internalType": "uint256",
          "name": "",
          "type": "uint256"
        }
      ],
      "name": "vaccines",
      "outputs": [
        {
          "internalType": "uint256",
          "name": "id",
          "type": "uint256"
        },
        {
          "internalType": "string",
          "name": "vaccineFor",
          "type": "string"
        },
        {
          "internalType": "string",
          "name": "manufacturer",
          "type": "string"
        },
        {
          "internalType": "string",
          "name": "batchId",
          "type": "string"
        },
        {
          "internalType": "string",
          "name": "expireDate",
          "type": "string"
        }
      ],
      "stateMutability": "view",
      "type": "function"
    },
    {
      "inputs": [],
      "name": "vaccinesCount",
      "outputs": [
        {
          "internalType": "uint256",
          "name": "",
          "type": "uint256"
        }
      ],
      "stateMutability": "view",
      "type": "function"
    },
    {
      "inputs": [
        {
          "internalType": "uint256",
          "name": "_patientId",
          "type": "uint256"
        }
      ],
      "name": "getPatientVaccinations",
      "outputs": [
        {
          "components": [
            {
              "internalType": "string",
              "name": "date",
              "type": "string"
            },
            {
              "internalType": "uint256",
              "name": "vaccineId",
              "type": "uint256"
            },
            {
              "internalType": "uint256",
              "name": "vaccinatorId",
              "type": "uint256"
            }
          ],
          "internalType": "struct VaccinationLog.VaccinationDose[]",
          "name": "",
          "type": "tuple[]"
        }
      ],
      "stateMutability": "view",
      "type": "function"
    },
    {
      "inputs": [],
      "name": "getAllData",
      "outputs": [
        {
          "components": [
            {
              "internalType": "uint256",
              "name": "id",
              "type": "uint256"
            },
            {
              "internalType": "string",
              "name": "name",
              "type": "string"
            },
            {
              "internalType": "uint256",
              "name": "age",
              "type": "uint256"
            },
            {
              "internalType": "string",
              "name": "location",
              "type": "string"
            },
            {
              "internalType": "enum VaccinationLog.Gender",
              "name": "gender",
              "type": "uint8"
            }
          ],
          "internalType": "struct VaccinationLog.Patient[]",
          "name": "",
          "type": "tuple[]"
        },
        {
          "components": [
            {
              "internalType": "uint256",
              "name": "id",
              "type": "uint256"
            },
            {
              "internalType": "string",
              "name": "vaccineFor",
              "type": "string"
            },
            {
              "internalType": "string",
              "name": "manufacturer",
              "type": "string"
            },
            {
              "internalType": "string",
              "name": "batchId",
              "type": "string"
            },
            {
              "internalType": "string",
              "name": "expireDate",
              "type": "string"
            }
          ],
          "internalType": "struct VaccinationLog.Vaccine[]",
          "name": "",
          "type": "tuple[]"
        },
        {
          "components": [
            {
              "internalType": "uint256",
              "name": "id",
              "type": "uint256"
            },
            {
              "internalType": "uint256",
              "name": "licenseNumber",
              "type": "uint256"
            },
            {
              "internalType": "string",
              "name": "name",
              "type": "string"
            }
          ],
          "internalType": "struct VaccinationLog.Vaccinator[]",
          "name": "",
          "type": "tuple[]"
        },
        {
          "components": [
            {
              "internalType": "string",
              "name": "date",
              "type": "string"
            },
            {
              "internalType": "uint256",
              "name": "vaccineId",
              "type": "uint256"
            },
            {
              "internalType": "uint256",
              "name": "vaccinatorId",
              "type": "uint256"
            }
          ],
          "internalType": "struct VaccinationLog.VaccinationDose[]",
          "name": "",
          "type": "tuple[]"
        }
      ],
      "stateMutability": "view",
      "type": "function"
    },
    {
      "inputs": [
        {
          "internalType": "string",
          "name": "_name",
          "type": "string"
        },
        {
          "internalType": "uint256",
          "name": "_age",
          "type": "uint256"
        },
        {
          "internalType": "string",
          "name": "_location",
          "type": "string"
        },
        {
          "internalType": "enum VaccinationLog.Gender",
          "name": "_gender",
          "type": "uint8"
        }
      ],
      "name": "addPatientWithValidation",
      "outputs": [
        {
          "internalType": "uint256",
          "name": "",
          "type": "uint256"
        }
      ],
      "stateMutability": "nonpayable",
      "type": "function"
    },
    {
      "inputs": [
        {
          "internalType": "string",
          "name": "_vaccineFor",
          "type": "string"
        },
        {
          "internalType": "string",
          "name": "_manufacturer",
          "type": "string"
        },
        {
          "internalType": "string",
          "name": "_batchId",
          "type": "string"
        },
        {
          "internalType": "string",
          "name": "_expireDate",
          "type": "string"
        }
      ],
      "name": "addVaccineWithValidation",
      "outputs": [
        {
          "internalType": "uint256",
          "name": "",
          "type": "uint256"
        }
      ],
      "stateMutability": "nonpayable",
      "type": "function"
    },
    {
      "inputs": [
        {
          "internalType": "uint256",
          "name": "_licenseNumber",
          "type": "uint256"
        },
        {
          "internalType": "string",
          "name": "_name",
          "type": "string"
        }
      ],
      "name": "addVaccinatorWithValidation",
      "outputs": [
        {
          "internalType": "uint256",
          "name": "",
          "type": "uint256"
        }
      ],
      "stateMutability": "nonpayable",
      "type": "function"
    },
    {
      "inputs": [
        {
          "internalType": "uint256",
          "name": "_patientId",
          "type": "uint256"
        },
        {
          "internalType": "string",
          "name": "_date",
          "type": "string"
        },
        {
          "internalType": "uint256",
          "name": "_vaccineId",
          "type": "uint256"
        },
        {
          "internalType": "uint256",
          "name": "_vaccinatorId",
          "type": "uint256"
        }
      ],
      "name": "addVaccinationDoseWithValidation",
      "outputs": [
        {
          "internalType": "uint256",
          "name": "",
          "type": "uint256"
        }
      ],
      "stateMutability": "nonpayable",
      "type": "function"
    }
  ],
  "bytecode": "0x608060405234801561001057600080fd5b50612e80806100206000396000f3fe608060405234801561001057600080fd5b50600436106100ea5760003560e01c8063acd613c21161008c578063d6fb5a6d11610066578063d6fb5a6d146102a8578063dba680fa146102d8578063dbab80d7146102f6578063efbbfe4f14610314576100ea565b8063acd613c21461023c578063b6b1289d1461025a578063bacacf9514610278576100ea565b80632d10fa28116100c85780632d10fa2814610183578063300e88bd146101a457806354bab163146101d857806393119a8314610208576100ea565b8063074cc95b146100ef5780630990b8df1461012157806326ec7a3214610153575b600080fd5b61010960048036038101906101049190611b44565b610344565b60405161011893929190611c10565b60405180910390f35b61013b60048036038101906101369190611c4e565b6103f6565b60405161014a93929190611c8e565b60405180910390f35b61016d60048036038101906101689190611b44565b6104c5565b60405161017a9190611e37565b60405180910390f35b61018b6105dd565b60405161019b949392919061226e565b60405180910390f35b6101be60048036038101906101b99190611b44565b610e6e565b6040516101cf9594939291906122cf565b60405180910390f35b6101f260048036038101906101ed9190612498565b6110c4565b6040516101ff9190612537565b60405180910390f35b610222600480360381019061021d9190611b44565b611145565b604051610233959493929190612561565b60405180910390f35b610244611298565b6040516102519190612537565b60405180910390f35b61026261129e565b60405161026f9190612537565b60405180910390f35b610292600480360381019061028d91906125c2565b6112a4565b60405161029f9190612537565b60405180910390f35b6102c260048036038101906102bd9190612645565b611336565b6040516102cf9190612537565b60405180910390f35b6102e06113b1565b6040516102ed9190612537565b60405180910390f35b6102fe6113b7565b60405161030b9190612537565b60405180910390f35b61032e600480360381019061032991906126a1565b6113bd565b60405161033b9190612537565b60405180910390f35b6002602052806000526040600020600091509050806000015490806001015490806002018054610373906127a7565b80601f016020809104026020016040519081016040528092919081815260200182805461039f906127a7565b80156103ec5780601f106103c1576101008083540402835291602001916103ec565b820191906000526020600020905b8154815290600101906020018083116103cf57829003601f168201915b5050505050905083565b6003602052816000526040600020818154811061041257600080fd5b906000526020600020906003020160009150915050806000018054610436906127a7565b80601f0160208091040260200160405190810160405280929190818152602001828054610462906127a7565b80156104af5780601f10610484576101008083540402835291602001916104af565b820191906000526020600020905b81548152906001019060200180831161049257829003601f168201915b5050505050908060010154908060020154905083565b606060036000838152602001908152602001600020805480602002602001604051908101604052809291908181526020016000905b828210156105d2578382906000526020600020906003020160405180606001604052908160008201805461052d906127a7565b80601f0160208091040260200160405190810160405280929190818152602001828054610559906127a7565b80156105a65780601f1061057b576101008083540402835291602001916105a6565b820191906000526020600020905b81548152906001019060200180831161058957829003601f168201915b5050505050815260200160018201548152602001600282015481525050815260200190600101906104fa565b505050509050919050565b606080606080600060045467ffffffffffffffff81111561060157610600612348565b5b60405190808252806020026020018201604052801561063a57816020015b610627611a48565b81526020019060019003908161061f5790505b509050600060055467ffffffffffffffff81111561065b5761065a612348565b5b60405190808252806020026020018201604052801561069457816020015b610681611a89565b8152602001906001900390816106795790505b509050600060065467ffffffffffffffff8111156106b5576106b4612348565b5b6040519080825280602002602001820160405280156106ee57816020015b6106db611ab8565b8152602001906001900390816106d35790505b509050600060075467ffffffffffffffff81111561070f5761070e612348565b5b60405190808252806020026020018201604052801561074857816020015b610735611ad9565b81526020019060019003908161072d5790505b50905060005b600454811015610925576000806001836107689190612807565b81526020019081526020016000206040518060a00160405290816000820154815260200160018201805461079b906127a7565b80601f01602080910402602001604051908101604052809291908181526020018280546107c7906127a7565b80156108145780601f106107e957610100808354040283529160200191610814565b820191906000526020600020905b8154815290600101906020018083116107f757829003601f168201915b5050505050815260200160028201548152602001600382018054610837906127a7565b80601f0160208091040260200160405190810160405280929190818152602001828054610863906127a7565b80156108b05780601f10610885576101008083540402835291602001916108b0565b820191906000526020600020905b81548152906001019060200180831161089357829003601f168201915b505050505081526020016004820160009054906101000a900460ff1660028111156108de576108dd611e85565b5b60028111156108f0576108ef611e85565b5b815250508582815181106109075761090661283b565b5b6020026020010181905250808061091d9061286a565b91505061074e565b5060005b600554811015610be057600160006001836109449190612807565b81526020019081526020016000206040518060a001604052908160008201548152602001600182018054610977906127a7565b80601f01602080910402602001604051908101604052809291908181526020018280546109a3906127a7565b80156109f05780601f106109c5576101008083540402835291602001916109f0565b820191906000526020600020905b8154815290600101906020018083116109d357829003601f168201915b50505050508152602001600282018054610a09906127a7565b80601f0160208091040260200160405190810160405280929190818152602001828054610a35906127a7565b8015610a825780601f10610a5757610100808354040283529160200191610a82565b820191906000526020600020905b815481529060010190602001808311610a6557829003601f168201915b50505050508152602001600382018054610a9b906127a7565b80601f0160208091040260200160405190810160405280929190818152602001828054610ac7906127a7565b8015610b145780601f10610ae957610100808354040283529160200191610b14565b820191906000526020600020905b815481529060010190602001808311610af757829003601f168201915b50505050508152602001600482018054610b2d906127a7565b80601f0160208091040260200160405190810160405280929190818152602001828054610b59906127a7565b8015610ba65780601f10610b7b57610100808354040283529160200191610ba6565b820191906000526020600020905b815481529060010190602001808311610b8957829003601f168201915b505050505081525050848281518110610bc257610bc161283b565b5b60200260200101819052508080610bd89061286a565b915050610929565b5060005b600654811015610cef5760026000600183610bff9190612807565b81526020019081526020016000206040518060600160405290816000820154815260200160018201548152602001600282018054610c3c906127a7565b80601f0160208091040260200160405190810160405280929190818152602001828054610c68906127a7565b8015610cb55780601f10610c8a57610100808354040283529160200191610cb5565b820191906000526020600020905b815481529060010190602001808311610c9857829003601f168201915b505050505081525050838281518110610cd157610cd061283b565b5b60200260200101819052508080610ce79061286a565b915050610be4565b506000805b600454811015610e5657600060036000600184610d119190612807565b8152602001908152602001600020905060005b8180549050811015610e4157818181548110610d4357610d4261283b565b5b9060005260206000209060030201604051806060016040529081600082018054610d6c906127a7565b80601f0160208091040260200160405190810160405280929190818152602001828054610d98906127a7565b8015610de55780601f10610dba57610100808354040283529160200191610de5565b820191906000526020600020905b815481529060010190602001808311610dc857829003601f168201915b5050505050815260200160018201548152602001600282015481525050858581518110610e1557610e1461283b565b5b60200260200101819052508380610e2b9061286a565b9450508080610e399061286a565b915050610d24565b50508080610e4e9061286a565b915050610cf4565b50848484849850985098509850505050505090919293565b6001602052806000526040600020600091509050806000015490806001018054610e97906127a7565b80601f0160208091040260200160405190810160405280929190818152602001828054610ec3906127a7565b8015610f105780601f10610ee557610100808354040283529160200191610f10565b820191906000526020600020905b815481529060010190602001808311610ef357829003601f168201915b505050505090806002018054610f25906127a7565b80601f0160208091040260200160405190810160405280929190818152602001828054610f51906127a7565b8015610f9e5780601f10610f7357610100808354040283529160200191610f9e565b820191906000526020600020905b815481529060010190602001808311610f8157829003601f168201915b505050505090806003018054610fb3906127a7565b80601f0160208091040260200160405190810160405280929190818152602001828054610fdf906127a7565b801561102c5780601f106110015761010080835404028352916020019161102c565b820191906000526020600020905b81548152906001019060200180831161100f57829003601f168201915b505050505090806004018054611041906127a7565b80601f016020809104026020016040519081016040528092919081815260200182805461106d906127a7565b80156110ba5780601f1061108f576101008083540402835291602001916110ba565b820191906000526020600020905b81548152906001019060200180831161109d57829003601f168201915b5050505050905085565b6000600460008154809291906110d99061286a565b91905055506110ea8585858561143e565b611129576040517f08c379a0000000000000000000000000000000000000000000000000000000008152600401611120906128fe565b60405180910390fd5b61113860045486868686611493565b6004549050949350505050565b600060205280600052604060002060009150905080600001549080600101805461116e906127a7565b80601f016020809104026020016040519081016040528092919081815260200182805461119a906127a7565b80156111e75780601f106111bc576101008083540402835291602001916111e7565b820191906000526020600020905b8154815290600101906020018083116111ca57829003601f168201915b505050505090806002015490806003018054611202906127a7565b80601f016020809104026020016040519081016040528092919081815260200182805461122e906127a7565b801561127b5780601f106112505761010080835404028352916020019161127b565b820191906000526020600020905b81548152906001019060200180831161125e57829003601f168201915b5050505050908060040160009054906101000a900460ff16905085565b60075481565b60045481565b6000600760008154809291906112b99061286a565b91905055506112ca85858585611585565b611309576040517f08c379a00000000000000000000000000000000000000000000000000000000081526004016113009061296a565b60405180910390fd5b61131585858585611608565b60036000868152602001908152602001600020805490509050949350505050565b60006006600081548092919061134b9061286a565b919050555061135a8383611861565b611399576040517f08c379a0000000000000000000000000000000000000000000000000000000008152600401611390906129d6565b60405180910390fd5b6113a6600654848461188b565b600654905092915050565b60065481565b60055481565b6000600560008154809291906113d29061286a565b91905055506113e385858585611930565b611422576040517f08c379a000000000000000000000000000000000000000000000000000000000815260040161141990612a42565b60405180910390fd5b61143160055486868686611975565b6005549050949350505050565b6000808551148061144f5750600084145b8061145b575060008351145b806114785750600282600281111561147657611475611e85565b5b115b15611486576000905061148b565b600190505b949350505050565b6040518060a001604052808681526020018581526020018481526020018381526020018260028111156114c9576114c8611e85565b5b8152506000808781526020019081526020016000206000820151816000015560208201518160010190816114fd9190612c0e565b5060408201518160020155606082015181600301908161151d9190612c0e565b5060808201518160040160006101000a81548160ff0219169083600281111561154957611548611e85565b5b0217905550905050847faed33e54b4b0bc174eb213d3e5090df6d7807f8e6ffda1c83b13657cb7fe6ea560405160405180910390a25050505050565b6000806000808781526020019081526020016000206000015414806115ab575060008451145b806115cc575060006001600085815260200190815260200160002060000154145b806115ed575060006002600084815260200190815260200160002060000154145b156115fb5760009050611600565b600190505b949350505050565b6000600160008481526020019081526020016000206000015403611661576040517f08c379a000000000000000000000000000000000000000000000000000000000815260040161165890612d2c565b60405180910390fd5b60006002600083815260200190815260200160002060000154036116ba576040517f08c379a00000000000000000000000000000000000000000000000000000000081526004016116b190612d98565b60405180910390fd5b60005b60036000868152602001908152602001600020805490508110156117a857826003600087815260200190815260200160002082815481106117015761170061283b565b5b9060005260206000209060030201600101541415806117565750816003600087815260200190815260200160002082815481106117415761174061283b565b5b90600052602060002090600302016002015414155b611795576040517f08c379a000000000000000000000000000000000000000000000000000000000815260040161178c90612e2a565b60405180910390fd5b80806117a09061286a565b9150506116bd565b5060036000858152602001908152602001600020604051806060016040528085815260200184815260200183815250908060018154018082558091505060019003906000526020600020906003020160009091909190915060008201518160000190816118159190612c0e565b50602082015181600101556040820151816002015550508082857f0d3bf3ffcbec845f676c5741509c01243a2a6dfec049e7011fb0241ee3b0ab6860405160405180910390a450505050565b600080831480611872575060008251145b156118805760009050611885565b600190505b92915050565b6006600081548092919061189e9061286a565b919050555060405180606001604052808481526020018381526020018281525060026000858152602001908152602001600020600082015181600001556020820151816001015560408201518160020190816118fa9190612c0e565b50905050827f3204accbe9bb969073dba3c2882c24196056144e999f53bd3217852392749ed960405160405180910390a2505050565b60008085511480611942575060008451145b8061194e575060008351145b8061195a575060008251145b15611968576000905061196d565b600190505b949350505050565b6040518060a0016040528086815260200185815260200184815260200183815260200182815250600160008781526020019081526020016000206000820151816000015560208201518160010190816119ce9190612c0e565b5060408201518160020190816119e49190612c0e565b5060608201518160030190816119fa9190612c0e565b506080820151816004019081611a109190612c0e565b50905050847ffa87eff877135c9cdcf284b2f892138da014d35c3662dc470b91012b3dbb6b9960405160405180910390a25050505050565b6040518060a001604052806000815260200160608152602001600081526020016060815260200160006002811115611a8357611a82611e85565b5b81525090565b6040518060a0016040528060008152602001606081526020016060815260200160608152602001606081525090565b60405180606001604052806000815260200160008152602001606081525090565b60405180606001604052806060815260200160008152602001600081525090565b6000604051905090565b600080fd5b600080fd5b6000819050919050565b611b2181611b0e565b8114611b2c57600080fd5b50565b600081359050611b3e81611b18565b92915050565b600060208284031215611b5a57611b59611b04565b5b6000611b6884828501611b2f565b91505092915050565b611b7a81611b0e565b82525050565b600081519050919050565b600082825260208201905092915050565b60005b83811015611bba578082015181840152602081019050611b9f565b60008484015250505050565b6000601f19601f8301169050919050565b6000611be282611b80565b611bec8185611b8b565b9350611bfc818560208601611b9c565b611c0581611bc6565b840191505092915050565b6000606082019050611c256000830186611b71565b611c326020830185611b71565b8181036040830152611c448184611bd7565b9050949350505050565b60008060408385031215611c6557611c64611b04565b5b6000611c7385828601611b2f565b9250506020611c8485828601611b2f565b9150509250929050565b60006060820190508181036000830152611ca88186611bd7565b9050611cb76020830185611b71565b611cc46040830184611b71565b949350505050565b600081519050919050565b600082825260208201905092915050565b6000819050602082019050919050565b600082825260208201905092915050565b6000611d1482611b80565b611d1e8185611cf8565b9350611d2e818560208601611b9c565b611d3781611bc6565b840191505092915050565b611d4b81611b0e565b82525050565b60006060830160008301518482036000860152611d6e8282611d09565b9150506020830151611d836020860182611d42565b506040830151611d966040860182611d42565b508091505092915050565b6000611dad8383611d51565b905092915050565b6000602082019050919050565b6000611dcd82611ccc565b611dd78185611cd7565b935083602082028501611de985611ce8565b8060005b85811015611e255784840389528151611e068582611da1565b9450611e1183611db5565b925060208a01995050600181019050611ded565b50829750879550505050505092915050565b60006020820190508181036000830152611e518184611dc2565b905092915050565b600081519050919050565b600082825260208201905092915050565b6000819050602082019050919050565b7f4e487b7100000000000000000000000000000000000000000000000000000000600052602160045260246000fd5b60038110611ec557611ec4611e85565b5b50565b6000819050611ed682611eb4565b919050565b6000611ee682611ec8565b9050919050565b611ef681611edb565b82525050565b600060a083016000830151611f146000860182611d42565b5060208301518482036020860152611f2c8282611d09565b9150506040830151611f416040860182611d42565b5060608301518482036060860152611f598282611d09565b9150506080830151611f6e6080860182611eed565b508091505092915050565b6000611f858383611efc565b905092915050565b6000602082019050919050565b6000611fa582611e59565b611faf8185611e64565b935083602082028501611fc185611e75565b8060005b85811015611ffd5784840389528151611fde8582611f79565b9450611fe983611f8d565b925060208a01995050600181019050611fc5565b50829750879550505050505092915050565b600081519050919050565b600082825260208201905092915050565b6000819050602082019050919050565b600060a0830160008301516120536000860182611d42565b506020830151848203602086015261206b8282611d09565b915050604083015184820360408601526120858282611d09565b9150506060830151848203606086015261209f8282611d09565b915050608083015184820360808601526120b98282611d09565b9150508091505092915050565b60006120d2838361203b565b905092915050565b6000602082019050919050565b60006120f28261200f565b6120fc818561201a565b93508360208202850161210e8561202b565b8060005b8581101561214a578484038952815161212b85826120c6565b9450612136836120da565b925060208a01995050600181019050612112565b50829750879550505050505092915050565b600081519050919050565b600082825260208201905092915050565b6000819050602082019050919050565b60006060830160008301516121a06000860182611d42565b5060208301516121b36020860182611d42565b50604083015184820360408601526121cb8282611d09565b9150508091505092915050565b60006121e48383612188565b905092915050565b6000602082019050919050565b60006122048261215c565b61220e8185612167565b93508360208202850161222085612178565b8060005b8581101561225c578484038952815161223d85826121d8565b9450612248836121ec565b925060208a01995050600181019050612224565b50829750879550505050505092915050565b600060808201905081810360008301526122888187611f9a565b9050818103602083015261229c81866120e7565b905081810360408301526122b081856121f9565b905081810360608301526122c48184611dc2565b905095945050505050565b600060a0820190506122e46000830188611b71565b81810360208301526122f68187611bd7565b9050818103604083015261230a8186611bd7565b9050818103606083015261231e8185611bd7565b905081810360808301526123328184611bd7565b90509695505050505050565b600080fd5b600080fd5b7f4e487b7100000000000000000000000000000000000000000000000000000000600052604160045260246000fd5b61238082611bc6565b810181811067ffffffffffffffff8211171561239f5761239e612348565b5b80604052505050565b60006123b2611afa565b90506123be8282612377565b919050565b600067ffffffffffffffff8211156123de576123dd612348565b5b6123e782611bc6565b9050602081019050919050565b82818337600083830152505050565b6000612416612411846123c3565b6123a8565b90508281526020810184848401111561243257612431612343565b5b61243d8482856123f4565b509392505050565b600082601f83011261245a5761245961233e565b5b813561246a848260208601612403565b91505092915050565b6003811061248057600080fd5b50565b60008135905061249281612473565b92915050565b600080600080608085870312156124b2576124b1611b04565b5b600085013567ffffffffffffffff8111156124d0576124cf611b09565b5b6124dc87828801612445565b94505060206124ed87828801611b2f565b935050604085013567ffffffffffffffff81111561250e5761250d611b09565b5b61251a87828801612445565b925050606061252b87828801612483565b91505092959194509250565b600060208201905061254c6000830184611b71565b92915050565b61255b81611edb565b82525050565b600060a0820190506125766000830188611b71565b81810360208301526125888187611bd7565b90506125976040830186611b71565b81810360608301526125a98185611bd7565b90506125b86080830184612552565b9695505050505050565b600080600080608085870312156125dc576125db611b04565b5b60006125ea87828801611b2f565b945050602085013567ffffffffffffffff81111561260b5761260a611b09565b5b61261787828801612445565b935050604061262887828801611b2f565b925050606061263987828801611b2f565b91505092959194509250565b6000806040838503121561265c5761265b611b04565b5b600061266a85828601611b2f565b925050602083013567ffffffffffffffff81111561268b5761268a611b09565b5b61269785828601612445565b9150509250929050565b600080600080608085870312156126bb576126ba611b04565b5b600085013567ffffffffffffffff8111156126d9576126d8611b09565b5b6126e587828801612445565b945050602085013567ffffffffffffffff81111561270657612705611b09565b5b61271287828801612445565b935050604085013567ffffffffffffffff81111561273357612732611b09565b5b61273f87828801612445565b925050606085013567ffffffffffffffff8111156127605761275f611b09565b5b61276c87828801612445565b91505092959194509250565b7f4e487b7100000000000000000000000000000000000000000000000000000000600052602260045260246000fd5b600060028204905060018216806127bf57607f821691505b6020821081036127d2576127d1612778565b5b50919050565b7f4e487b7100000000000000000000000000000000000000000000000000000000600052601160045260246000fd5b600061281282611b0e565b915061281d83611b0e565b9250828201905080821115612835576128346127d8565b5b92915050565b7f4e487b7100000000000000000000000000000000000000000000000000000000600052603260045260246000fd5b600061287582611b0e565b91507fffffffffffffffffffffffffffffffffffffffffffffffffffffffffffffffff82036128a7576128a66127d8565b5b600182019050919050565b7f496e76616c69642070617469656e742064617461000000000000000000000000600082015250565b60006128e8601483611b8b565b91506128f3826128b2565b602082019050919050565b60006020820190508181036000830152612917816128db565b9050919050565b7f496e76616c69642076616363696e6174696f6e20646f73652064617461000000600082015250565b6000612954601d83611b8b565b915061295f8261291e565b602082019050919050565b6000602082019050818103600083015261298381612947565b9050919050565b7f496e76616c69642076616363696e61746f722064617461000000000000000000600082015250565b60006129c0601783611b8b565b91506129cb8261298a565b602082019050919050565b600060208201905081810360008301526129ef816129b3565b9050919050565b7f496e76616c69642076616363696e652064617461000000000000000000000000600082015250565b6000612a2c601483611b8b565b9150612a37826129f6565b602082019050919050565b60006020820190508181036000830152612a5b81612a1f565b9050919050565b60008190508160005260206000209050919050565b60006020601f8301049050919050565b600082821b905092915050565b600060088302612ac47fffffffffffffffffffffffffffffffffffffffffffffffffffffffffffffffff82612a87565b612ace8683612a87565b95508019841693508086168417925050509392505050565b6000819050919050565b6000612b0b612b06612b0184611b0e565b612ae6565b611b0e565b9050919050565b6000819050919050565b612b2583612af0565b612b39612b3182612b12565b848454612a94565b825550505050565b600090565b612b4e612b41565b612b59818484612b1c565b505050565b5b81811015612b7d57612b72600082612b46565b600181019050612b5f565b5050565b601f821115612bc257612b9381612a62565b612b9c84612a77565b81016020851015612bab578190505b612bbf612bb785612a77565b830182612b5e565b50505b505050565b600082821c905092915050565b6000612be560001984600802612bc7565b1980831691505092915050565b6000612bfe8383612bd4565b9150826002028217905092915050565b612c1782611b80565b67ffffffffffffffff811115612c3057612c2f612348565b5b612c3a82546127a7565b612c45828285612b81565b600060209050601f831160018114612c785760008415612c66578287015190505b612c708582612bf2565b865550612cd8565b601f198416612c8686612a62565b60005b82811015612cae57848901518255600182019150602085019450602081019050612c89565b86831015612ccb5784890151612cc7601f891682612bd4565b8355505b6001600288020188555050505b505050505050565b7f496e76616c69642076616363696e652069640000000000000000000000000000600082015250565b6000612d16601283611b8b565b9150612d2182612ce0565b602082019050919050565b60006020820190508181036000830152612d4581612d09565b9050919050565b7f496e76616c69642076616363696e61746f722069640000000000000000000000600082015250565b6000612d82601583611b8b565b9150612d8d82612d4c565b602082019050919050565b60006020820190508181036000830152612db181612d75565b9050919050565b7f56616363696e6520616c726561647920616464656420666f722070617469656e60008201527f7400000000000000000000000000000000000000000000000000000000000000602082015250565b6000612e14602183611b8b565b9150612e1f82612db8565b604082019050919050565b60006020820190508181036000830152612e4381612e07565b905091905056fea264697066735822122019f71c77bf3b81b50383106eb786a87c837857751561e6c37ead5c315ad4418464736f6c63430008130033",
  "immutableReferences": {},
  "source": "// SPDX-License-Identifier: GPL-3.0\n\npragma solidity ^0.8.19;\n\n/**\n * @title Vaccination Log\n * @dev A smart contract that tracks and logs the vaccination status of patients.\n * @notice This contract allows adding and retrieving data about patients, vaccines, vaccinators, and vaccination doses. It stores the data in mappings, validates the data, and emits events for each addition.\n * @author Justin J Daniel\n */\ncontract VaccinationLog {\n    /**\n     * @dev An enum to represent the gender of a patient\n     */\n    enum Gender {\n        Male,\n        Female,\n        Other\n    }\n\n    /**\n     * @dev A struct to store the data of a patient\n     * @param id The ID of the patient\n     * @param name The name of the patient\n     * @param age The age of the patient\n     * @param location The location of the patient\n     * @param gender The gender of the patient\n     */\n    struct Patient {\n        uint256 id;\n        string name;\n        uint256 age;\n        string location;\n        Gender gender;\n    }\n\n    /**\n     * @dev A struct to store the data of a vaccine\n     * @param id The ID of the vaccine\n     * @param vaccineFor The disease that the vaccine prevents\n     * @param manufacturer The name of the vaccine manufacturer\n     * @param batchId The batch ID of the vaccine\n     * @param expireDate The expiry date of the vaccine\n     */\n    struct Vaccine {\n        uint256 id;\n        string vaccineFor;\n        string manufacturer;\n        string batchId;\n        string expireDate;\n    }\n\n    /**\n     * @dev A struct to store the data of a vaccinator\n     * @param id The ID of the vaccinator\n     * @param licenseNumber The license number of the vaccinator\n     * @param name The name of the vaccinator\n     */\n    struct Vaccinator {\n        uint256 id;\n        uint256 licenseNumber;\n        string name;\n    }\n\n    /**\n     * @dev A struct to store the data of a vaccination dose\n     * @param date The date of the vaccination dose\n     * @param vaccineId The ID of the vaccine used for the dose\n     * @param vaccinatorId The ID of the vaccinator who administered the dose\n     */\n    struct VaccinationDose {\n        string date;\n        uint256 vaccineId;\n        uint256 vaccinatorId;\n    }\n\n    /**\n     * @dev A mapping from patient ID to Patient struct\n     */\n    mapping(uint256 => Patient) public patients;\n\n    /**\n     * @dev A mapping from vaccine ID to Vaccine struct\n     */\n    mapping(uint256 => Vaccine) public vaccines;\n\n    /**\n     * @dev A mapping from vaccinator ID to Vaccinator struct\n     */\n    mapping(uint256 => Vaccinator) public vaccinators;\n\n    /**\n     * @dev A mapping from patient ID to an array of VaccinationDose structs\n     */\n    mapping(uint256 => VaccinationDose[]) public patientVaccinations;\n\n    /**\n     * @dev An event that is emitted when a new patient is added to the contract\n     * @param id The ID of the added patient\n     */\n    event PatientAdded(uint256 indexed id);\n\n    /**\n     * @dev An event that is emitted when a new vaccine is added to the contract\n     * @param id The ID of the added vaccine\n     */\n    event VaccineAdded(uint256 indexed id);\n\n    /**\n     * @dev An event that is emitted when a new vaccinator is added to the contract\n     * @param id The ID of the added vaccinator\n     */\n    event VaccinatorAdded(uint256 indexed id);\n\n    /**\n     * @dev An event that is emitted when a new vaccination dose is added to the contract\n     * @param patientId The ID of the patient who received the dose\n     * @param vaccineId The ID of the vaccine used for the dose\n     * @param vaccinatorId The ID of the vaccinator who administered the dose\n     */\n    event VaccinationDoseAdded(\n        uint256 indexed patientId,\n        uint256 indexed vaccineId,\n        uint256 indexed vaccinatorId\n    );\n\n    uint256 public patientsCount;\n    uint256 public vaccinesCount;\n    uint256 public vaccinatorsCount;\n    uint256 public vaccinationDoseCount;\n\n    /**\n     * @dev Create a new patient with unique id\n     * @param _id unique id of patient\n     * @param _name name of patient\n     * @param _age age of patient\n     * @param _gender sex of patient\n     * @param _location address of patient\n     */\n    function addPatient(\n        uint256 _id,\n        string memory _name,\n        uint256 _age,\n        string memory _location,\n        Gender _gender\n    ) private {\n        patients[_id] = Patient(_id, _name, _age, _location, _gender);\n        emit PatientAdded(_id);\n    }\n\n    /**\n     * @dev Adds a new vaccine to the contract\n     * @param _id The ID of the vaccine\n     * @param _vaccineFor The disease that the vaccine prevents\n     * @param _manufacturer The name of the vaccine manufacturer\n     * @param _batchId The batch ID of the vaccine\n     * @param _expireDate The expiry date of the vaccine\n     */\n    function addVaccine(\n        uint256 _id,\n        string memory _vaccineFor,\n        string memory _manufacturer,\n        string memory _batchId,\n        string memory _expireDate\n    ) private {\n        vaccines[_id] = Vaccine(\n            _id,\n            _vaccineFor,\n            _manufacturer,\n            _batchId,\n            _expireDate\n        );\n        emit VaccineAdded(_id);\n    }\n\n    /**\n     * @dev Add a new vaccinator with unique id\n     * @param _id unique id of vaccinator\n     * @param _licenseNumber license number of vaccinator\n     * @param _name name of vaccinator\n     */\n    function addVaccinator(\n        uint256 _id,\n        uint256 _licenseNumber,\n        string memory _name\n    ) private {\n        vaccinatorsCount++;\n        vaccinators[_id] = Vaccinator(_id, _licenseNumber, _name);\n        emit VaccinatorAdded(_id);\n    }\n\n    /**\n     * @dev Add a new vaccination dose for a patient\n     * @param _patientId id of patient\n     * @param _date date of vaccination dose\n     * @param _vaccineId id of vaccine used for dose\n     * @param _vaccinatorId id of vaccinator who administered dose\n     */\n    function addVaccinationDose(\n        uint256 _patientId,\n        string memory _date,\n        uint256 _vaccineId,\n        uint256 _vaccinatorId\n    ) private {\n        require(vaccines[_vaccineId].id != 0, 'Invalid vaccine id');\n        require(vaccinators[_vaccinatorId].id != 0, 'Invalid vaccinator id');\n\n        for (uint256 i = 0; i < patientVaccinations[_patientId].length; i++) {\n            require(\n                patientVaccinations[_patientId][i].vaccineId != _vaccineId ||\n                    patientVaccinations[_patientId][i].vaccinatorId !=\n                    _vaccinatorId,\n                'Vaccine already added for patient'\n            );\n        }\n\n        patientVaccinations[_patientId].push(\n            VaccinationDose(_date, _vaccineId, _vaccinatorId)\n        );\n        emit VaccinationDoseAdded(_patientId, _vaccineId, _vaccinatorId);\n    }\n\n    /**\n     * @dev Returns an array of vaccination doses for a given patient ID\n     * @param _patientId The ID of the patient\n     * @return An array of VaccinationDose structs\n     */\n    function getPatientVaccinations(\n        uint256 _patientId\n    ) public view returns (VaccinationDose[] memory) {\n        return patientVaccinations[_patientId];\n    }\n\n    /**\n     * @dev Returns all the data stored in the contract\n     * @return Four arrays of structs: Patient, Vaccine, Vaccinator and VaccinationDose\n     */\n    function getAllData()\n        public\n        view\n        returns (\n            Patient[] memory,\n            Vaccine[] memory,\n            Vaccinator[] memory,\n            VaccinationDose[] memory\n        )\n    {\n        Patient[] memory _patients = new Patient[](patientsCount);\n        Vaccine[] memory _vaccines = new Vaccine[](vaccinesCount);\n        Vaccinator[] memory _vaccinators = new Vaccinator[](vaccinatorsCount);\n        VaccinationDose[] memory _vaccinationDoses = new VaccinationDose[](\n            vaccinationDoseCount\n        );\n\n        for (uint256 i = 0; i < patientsCount; i++) {\n            _patients[i] = patients[i + 1];\n        }\n\n        for (uint256 i = 0; i < vaccinesCount; i++) {\n            _vaccines[i] = vaccines[i + 1];\n        }\n\n        for (uint256 i = 0; i < vaccinatorsCount; i++) {\n            _vaccinators[i] = vaccinators[i + 1];\n        }\n\n        uint256 index = 0;\n        for (uint256 i = 0; i < patientsCount; i++) {\n            VaccinationDose[] storage vaccinationDoses = patientVaccinations[\n                i + 1\n            ];\n            for (uint256 j = 0; j < vaccinationDoses.length; j++) {\n                _vaccinationDoses[index] = vaccinationDoses[j];\n                index++;\n            }\n        }\n\n        return (_patients, _vaccines, _vaccinators, _vaccinationDoses);\n    }\n\n    /**\n     * @dev Checks if the patient data is valid\n     * @param _name The name of the patient\n     * @param _age The age of the patient\n     * @param _location The location of the patient\n     * @param _gender The gender of the patient\n     * @return A boolean value indicating if the data is valid or not\n     */\n    function validatePatientData(\n        string memory _name,\n        uint256 _age,\n        string memory _location,\n        Gender _gender\n    ) private pure returns (bool) {\n        if (\n            bytes(_name).length == 0 ||\n            _age == 0 ||\n            bytes(_location).length == 0 ||\n            uint256(_gender) > 2\n        ) {\n            return false;\n        }\n        return true;\n    }\n\n    /**\n     * @dev Checks if the vaccine data is valid\n     * @param _vaccineFor The disease that the vaccine prevents\n     * @param _manufacturer The name of the vaccine manufacturer\n     * @param _batchId The batch ID of the vaccine\n     * @param _expireDate The expiry date of the vaccine\n     * @return A boolean value indicating if the data is valid or not\n     */\n    function validateVaccineData(\n        string memory _vaccineFor,\n        string memory _manufacturer,\n        string memory _batchId,\n        string memory _expireDate\n    ) private pure returns (bool) {\n        if (\n            bytes(_vaccineFor).length == 0 ||\n            bytes(_manufacturer).length == 0 ||\n            bytes(_batchId).length == 0 ||\n            bytes(_expireDate).length == 0\n        ) {\n            return false;\n        }\n        return true;\n    }\n\n    /**\n     * @dev Checks if the vaccinator data is valid\n     * @param _licenseNumber The license number of the vaccinator\n     * @param _name The name of the vaccinator\n     * @return A boolean value indicating if the data is valid or not\n     */\n    function validateVaccinatorData(\n        uint256 _licenseNumber,\n        string memory _name\n    ) private pure returns (bool) {\n        if (_licenseNumber == 0 || bytes(_name).length == 0) {\n            return false;\n        }\n        return true;\n    }\n\n    /**\n     * @dev Checks if the vaccination dose data is valid\n     * @param _patientId The ID of the patient who received the dose\n     * @param _date The date of the vaccination dose\n     * @param _vaccineId The ID of the vaccine used for the dose\n     * @param _vaccinatorId The ID of the vaccinator who administered the dose\n     * @return A boolean value indicating if the data is valid or not\n     */\n    function validateVaccinationDoseData(\n        uint256 _patientId,\n        string memory _date,\n        uint256 _vaccineId,\n        uint256 _vaccinatorId\n    ) private view returns (bool) {\n        if (\n            patients[_patientId].id == 0 ||\n            bytes(_date).length == 0 ||\n            vaccines[_vaccineId].id == 0 ||\n            vaccinators[_vaccinatorId].id == 0\n        ) {\n            return false;\n        }\n        return true;\n    }\n\n    /**\n     * @dev Adds a new patient to the contract with validation\n     * @param _name The name of the patient\n     * @param _age The age of the patient\n     * @param _location The location of the patient\n     * @param _gender The gender of the patient\n     * @return The ID of the added patient\n     */\n    function addPatientWithValidation(\n        string memory _name,\n        uint256 _age,\n        string memory _location,\n        Gender _gender\n    ) public returns (uint256) {\n        patientsCount++;\n        require(\n            validatePatientData(_name, _age, _location, _gender),\n            'Invalid patient data'\n        );\n        addPatient(patientsCount, _name, _age, _location, _gender);\n        return patientsCount;\n    }\n\n    /**\n     * @dev Adds a new vaccine to the contract with validation\n     * @param _vaccineFor The disease that the vaccine prevents\n     * @param _manufacturer The name of the vaccine manufacturer\n     * @param _batchId The batch ID of the vaccine\n     * @param _expireDate The expiry date of the vaccine\n     * @return The ID of the added vaccine\n     */\n    function addVaccineWithValidation(\n        string memory _vaccineFor,\n        string memory _manufacturer,\n        string memory _batchId,\n        string memory _expireDate\n    ) public returns (uint256) {\n        vaccinesCount++;\n        require(\n            validateVaccineData(\n                _vaccineFor,\n                _manufacturer,\n                _batchId,\n                _expireDate\n            ),\n            'Invalid vaccine data'\n        );\n        addVaccine(\n            vaccinesCount,\n            _vaccineFor,\n            _manufacturer,\n            _batchId,\n            _expireDate\n        );\n        return vaccinesCount;\n    }\n\n    /**\n     * @dev Adds a new vaccinator to the contract with validation\n     * @param _licenseNumber The license number of the vaccinator\n     * @param _name The name of the vaccinator\n     * @return The ID of the added vaccinator\n     */\n    function addVaccinatorWithValidation(\n        uint256 _licenseNumber,\n        string memory _name\n    ) public returns (uint256) {\n        vaccinatorsCount++;\n        require(\n            validateVaccinatorData(_licenseNumber, _name),\n            'Invalid vaccinator data'\n        );\n        addVaccinator(vaccinatorsCount, _licenseNumber, _name);\n        return vaccinatorsCount;\n    }\n\n    /**\n     * @dev Adds a new vaccination dose to the contract with validation\n     * @param _patientId The ID of the patient who received the dose\n     * @param _date The date of the vaccination dose\n     * @param _vaccineId The ID of the vaccine used for the dose\n     * @param _vaccinatorId The ID of the vaccinator who administered the dose\n     * @return The number of vaccination doses for the patient\n     */\n    function addVaccinationDoseWithValidation(\n        uint256 _patientId,\n        string memory _date,\n        uint256 _vaccineId,\n        uint256 _vaccinatorId\n    ) public returns (uint256) {\n        vaccinationDoseCount++;\n        require(\n            validateVaccinationDoseData(\n                _patientId,\n                _date,\n                _vaccineId,\n                _vaccinatorId\n            ),\n            'Invalid vaccination dose data'\n        );\n        addVaccinationDose(_patientId, _date, _vaccineId, _vaccinatorId);\n        return patientVaccinations[_patientId].length;\n    }\n}\n",
  "sourcePath": "/home/justinj/workspace/projects/Vacci-Log/server/contracts/VaccinationLog.sol",
  "compiler": {
    "name": "solc",
    "version": "0.8.19+commit.7dd6d404.Emscripten.clang"
  },
  "schemaVersion": "3.4.13",
  "updatedAt": "2023-03-31T20:03:21.863Z",
  "devdoc": {
    "author": "Justin J Daniel",
    "details": "A smart contract that tracks and logs the vaccination status of patients.",
    "events": {
      "PatientAdded(uint256)": {
        "details": "An event that is emitted when a new patient is added to the contract",
        "params": {
          "id": "The ID of the added patient"
        }
      },
      "VaccinationDoseAdded(uint256,uint256,uint256)": {
        "details": "An event that is emitted when a new vaccination dose is added to the contract",
        "params": {
          "patientId": "The ID of the patient who received the dose",
          "vaccinatorId": "The ID of the vaccinator who administered the dose",
          "vaccineId": "The ID of the vaccine used for the dose"
        }
      },
      "VaccinatorAdded(uint256)": {
        "details": "An event that is emitted when a new vaccinator is added to the contract",
        "params": {
          "id": "The ID of the added vaccinator"
        }
      },
      "VaccineAdded(uint256)": {
        "details": "An event that is emitted when a new vaccine is added to the contract",
        "params": {
          "id": "The ID of the added vaccine"
        }
      }
    },
    "kind": "dev",
    "methods": {
      "addPatientWithValidation(string,uint256,string,uint8)": {
        "details": "Adds a new patient to the contract with validation",
        "params": {
          "_age": "The age of the patient",
          "_gender": "The gender of the patient",
          "_location": "The location of the patient",
          "_name": "The name of the patient"
        },
        "returns": {
          "_0": "The ID of the added patient"
        }
      },
      "addVaccinationDoseWithValidation(uint256,string,uint256,uint256)": {
        "details": "Adds a new vaccination dose to the contract with validation",
        "params": {
          "_date": "The date of the vaccination dose",
          "_patientId": "The ID of the patient who received the dose",
          "_vaccinatorId": "The ID of the vaccinator who administered the dose",
          "_vaccineId": "The ID of the vaccine used for the dose"
        },
        "returns": {
          "_0": "The number of vaccination doses for the patient"
        }
      },
      "addVaccinatorWithValidation(uint256,string)": {
        "details": "Adds a new vaccinator to the contract with validation",
        "params": {
          "_licenseNumber": "The license number of the vaccinator",
          "_name": "The name of the vaccinator"
        },
        "returns": {
          "_0": "The ID of the added vaccinator"
        }
      },
      "addVaccineWithValidation(string,string,string,string)": {
        "details": "Adds a new vaccine to the contract with validation",
        "params": {
          "_batchId": "The batch ID of the vaccine",
          "_expireDate": "The expiry date of the vaccine",
          "_manufacturer": "The name of the vaccine manufacturer",
          "_vaccineFor": "The disease that the vaccine prevents"
        },
        "returns": {
          "_0": "The ID of the added vaccine"
        }
      },
      "getAllData()": {
        "details": "Returns all the data stored in the contract",
        "returns": {
          "_0": "Four arrays of structs: Patient, Vaccine, Vaccinator and VaccinationDose"
        }
      },
      "getPatientVaccinations(uint256)": {
        "details": "Returns an array of vaccination doses for a given patient ID",
        "params": {
          "_patientId": "The ID of the patient"
        },
        "returns": {
          "_0": "An array of VaccinationDose structs"
        }
      }
    },
    "stateVariables": {
      "patientVaccinations": {
        "details": "A mapping from patient ID to an array of VaccinationDose structs"
      },
      "patients": {
        "details": "A mapping from patient ID to Patient struct"
      },
      "vaccinators": {
        "details": "A mapping from vaccinator ID to Vaccinator struct"
      },
      "vaccines": {
        "details": "A mapping from vaccine ID to Vaccine struct"
      }
    },
    "title": "Vaccination Log",
    "version": 1
  },
  "userdoc": {
    "kind": "user",
    "methods": {},
    "notice": "This contract allows adding and retrieving data about patients, vaccines, vaccinators, and vaccination doses. It stores the data in mappings, validates the data, and emits events for each addition.",
    "version": 1
  }
}