{
  "contractName": "VaccinationLog",
  "abi": [
    {
      "anonymous": false,
      "inputs": [
        {
          "indexed": true,
          "internalType": "uint256",
          "name": "id",
          "type": "uint256"
        }
      ],
      "name": "PatientAdded",
      "type": "event"
    },
    {
      "anonymous": false,
      "inputs": [
        {
          "indexed": true,
          "internalType": "uint256",
          "name": "patientId",
          "type": "uint256"
        },
        {
          "indexed": true,
          "internalType": "uint256",
          "name": "vaccineId",
          "type": "uint256"
        },
        {
          "indexed": true,
          "internalType": "uint256",
          "name": "vaccinatorId",
          "type": "uint256"
        }
      ],
      "name": "VaccinationDoseAdded",
      "type": "event"
    },
    {
      "anonymous": false,
      "inputs": [
        {
          "indexed": true,
          "internalType": "uint256",
          "name": "id",
          "type": "uint256"
        }
      ],
      "name": "VaccinatorAdded",
      "type": "event"
    },
    {
      "anonymous": false,
      "inputs": [
        {
          "indexed": true,
          "internalType": "uint256",
          "name": "id",
          "type": "uint256"
        }
      ],
      "name": "VaccineAdded",
      "type": "event"
    },
    {
      "inputs": [
        {
          "internalType": "uint256",
          "name": "",
          "type": "uint256"
        },
        {
          "internalType": "uint256",
          "name": "",
          "type": "uint256"
        }
      ],
      "name": "patientVaccinations",
      "outputs": [
        {
          "internalType": "string",
          "name": "date",
          "type": "string"
        },
        {
          "internalType": "uint256",
          "name": "vaccineId",
          "type": "uint256"
        },
        {
          "internalType": "uint256",
          "name": "vaccinatorId",
          "type": "uint256"
        }
      ],
      "stateMutability": "view",
      "type": "function"
    },
    {
      "inputs": [
        {
          "internalType": "uint256",
          "name": "",
          "type": "uint256"
        }
      ],
      "name": "patients",
      "outputs": [
        {
          "internalType": "uint256",
          "name": "id",
          "type": "uint256"
        },
        {
          "internalType": "string",
          "name": "name",
          "type": "string"
        },
        {
          "internalType": "uint256",
          "name": "age",
          "type": "uint256"
        },
        {
          "internalType": "string",
          "name": "location",
          "type": "string"
        },
        {
          "internalType": "enum VaccinationLog.Gender",
          "name": "gender",
          "type": "uint8"
        }
      ],
      "stateMutability": "view",
      "type": "function"
    },
    {
      "inputs": [],
      "name": "patientsCount",
      "outputs": [
        {
          "internalType": "uint256",
          "name": "",
          "type": "uint256"
        }
      ],
      "stateMutability": "view",
      "type": "function"
    },
    {
      "inputs": [],
      "name": "vaccinationDoseCount",
      "outputs": [
        {
          "internalType": "uint256",
          "name": "",
          "type": "uint256"
        }
      ],
      "stateMutability": "view",
      "type": "function"
    },
    {
      "inputs": [
        {
          "internalType": "uint256",
          "name": "",
          "type": "uint256"
        }
      ],
      "name": "vaccinators",
      "outputs": [
        {
          "internalType": "uint256",
          "name": "id",
          "type": "uint256"
        },
        {
          "internalType": "uint256",
          "name": "licenseNumber",
          "type": "uint256"
        },
        {
          "internalType": "string",
          "name": "name",
          "type": "string"
        }
      ],
      "stateMutability": "view",
      "type": "function"
    },
    {
      "inputs": [],
      "name": "vaccinatorsCount",
      "outputs": [
        {
          "internalType": "uint256",
          "name": "",
          "type": "uint256"
        }
      ],
      "stateMutability": "view",
      "type": "function"
    },
    {
      "inputs": [
        {
          "internalType": "uint256",
          "name": "",
          "type": "uint256"
        }
      ],
      "name": "vaccines",
      "outputs": [
        {
          "internalType": "uint256",
          "name": "id",
          "type": "uint256"
        },
        {
          "internalType": "string",
          "name": "vaccineFor",
          "type": "string"
        },
        {
          "internalType": "string",
          "name": "manufacturer",
          "type": "string"
        },
        {
          "internalType": "string",
          "name": "batchId",
          "type": "string"
        },
        {
          "internalType": "string",
          "name": "expireDate",
          "type": "string"
        }
      ],
      "stateMutability": "view",
      "type": "function"
    },
    {
      "inputs": [],
      "name": "vaccinesCount",
      "outputs": [
        {
          "internalType": "uint256",
          "name": "",
          "type": "uint256"
        }
      ],
      "stateMutability": "view",
      "type": "function"
    },
    {
      "inputs": [
        {
          "internalType": "uint256",
          "name": "_patientId",
          "type": "uint256"
        }
      ],
      "name": "getPatientVaccinations",
      "outputs": [
        {
          "components": [
            {
              "internalType": "string",
              "name": "date",
              "type": "string"
            },
            {
              "internalType": "uint256",
              "name": "vaccineId",
              "type": "uint256"
            },
            {
              "internalType": "uint256",
              "name": "vaccinatorId",
              "type": "uint256"
            }
          ],
          "internalType": "struct VaccinationLog.VaccinationDose[]",
          "name": "",
          "type": "tuple[]"
        }
      ],
      "stateMutability": "view",
      "type": "function"
    },
    {
      "inputs": [],
      "name": "getAllData",
      "outputs": [
        {
          "components": [
            {
              "internalType": "uint256",
              "name": "id",
              "type": "uint256"
            },
            {
              "internalType": "string",
              "name": "name",
              "type": "string"
            },
            {
              "internalType": "uint256",
              "name": "age",
              "type": "uint256"
            },
            {
              "internalType": "string",
              "name": "location",
              "type": "string"
            },
            {
              "internalType": "enum VaccinationLog.Gender",
              "name": "gender",
              "type": "uint8"
            }
          ],
          "internalType": "struct VaccinationLog.Patient[]",
          "name": "",
          "type": "tuple[]"
        },
        {
          "components": [
            {
              "internalType": "uint256",
              "name": "id",
              "type": "uint256"
            },
            {
              "internalType": "string",
              "name": "vaccineFor",
              "type": "string"
            },
            {
              "internalType": "string",
              "name": "manufacturer",
              "type": "string"
            },
            {
              "internalType": "string",
              "name": "batchId",
              "type": "string"
            },
            {
              "internalType": "string",
              "name": "expireDate",
              "type": "string"
            }
          ],
          "internalType": "struct VaccinationLog.Vaccine[]",
          "name": "",
          "type": "tuple[]"
        },
        {
          "components": [
            {
              "internalType": "uint256",
              "name": "id",
              "type": "uint256"
            },
            {
              "internalType": "uint256",
              "name": "licenseNumber",
              "type": "uint256"
            },
            {
              "internalType": "string",
              "name": "name",
              "type": "string"
            }
          ],
          "internalType": "struct VaccinationLog.Vaccinator[]",
          "name": "",
          "type": "tuple[]"
        },
        {
          "components": [
            {
              "internalType": "string",
              "name": "date",
              "type": "string"
            },
            {
              "internalType": "uint256",
              "name": "vaccineId",
              "type": "uint256"
            },
            {
              "internalType": "uint256",
              "name": "vaccinatorId",
              "type": "uint256"
            }
          ],
          "internalType": "struct VaccinationLog.VaccinationDose[]",
          "name": "",
          "type": "tuple[]"
        }
      ],
      "stateMutability": "view",
      "type": "function"
    },
    {
      "inputs": [
        {
          "internalType": "string",
          "name": "_name",
          "type": "string"
        },
        {
          "internalType": "uint256",
          "name": "_age",
          "type": "uint256"
        },
        {
          "internalType": "string",
          "name": "_location",
          "type": "string"
        },
        {
          "internalType": "enum VaccinationLog.Gender",
          "name": "_gender",
          "type": "uint8"
        }
      ],
      "name": "addPatientWithValidation",
      "outputs": [
        {
          "internalType": "uint256",
          "name": "",
          "type": "uint256"
        }
      ],
      "stateMutability": "nonpayable",
      "type": "function"
    },
    {
      "inputs": [
        {
          "internalType": "string",
          "name": "_vaccineFor",
          "type": "string"
        },
        {
          "internalType": "string",
          "name": "_manufacturer",
          "type": "string"
        },
        {
          "internalType": "string",
          "name": "_batchId",
          "type": "string"
        },
        {
          "internalType": "string",
          "name": "_expireDate",
          "type": "string"
        }
      ],
      "name": "addVaccineWithValidation",
      "outputs": [
        {
          "internalType": "uint256",
          "name": "",
          "type": "uint256"
        }
      ],
      "stateMutability": "nonpayable",
      "type": "function"
    },
    {
      "inputs": [
        {
          "internalType": "uint256",
          "name": "_licenseNumber",
          "type": "uint256"
        },
        {
          "internalType": "string",
          "name": "_name",
          "type": "string"
        }
      ],
      "name": "addVaccinatorWithValidation",
      "outputs": [
        {
          "internalType": "uint256",
          "name": "",
          "type": "uint256"
        }
      ],
      "stateMutability": "nonpayable",
      "type": "function"
    },
    {
      "inputs": [
        {
          "internalType": "uint256",
          "name": "_patientId",
          "type": "uint256"
        },
        {
          "internalType": "string",
          "name": "_date",
          "type": "string"
        },
        {
          "internalType": "uint256",
          "name": "_vaccineId",
          "type": "uint256"
        },
        {
          "internalType": "uint256",
          "name": "_vaccinatorId",
          "type": "uint256"
        }
      ],
      "name": "addVaccinationDoseWithValidation",
      "outputs": [
        {
          "internalType": "uint256",
          "name": "",
          "type": "uint256"
        }
      ],
      "stateMutability": "nonpayable",
      "type": "function"
    }
  ],
  "bytecode": "0x608060405234801561001057600080fd5b50612e68806100206000396000f3fe608060405234801561001057600080fd5b50600436106100ea5760003560e01c8063acd613c21161008c578063d6fb5a6d11610066578063d6fb5a6d146102a8578063dba680fa146102d8578063dbab80d7146102f6578063efbbfe4f14610314576100ea565b8063acd613c21461023c578063b6b1289d1461025a578063bacacf9514610278576100ea565b80632d10fa28116100c85780632d10fa2814610183578063300e88bd146101a457806354bab163146101d857806393119a8314610208576100ea565b8063074cc95b146100ef5780630990b8df1461012157806326ec7a3214610153575b600080fd5b61010960048036038101906101049190611b2c565b610344565b60405161011893929190611bf8565b60405180910390f35b61013b60048036038101906101369190611c36565b6103f6565b60405161014a93929190611c76565b60405180910390f35b61016d60048036038101906101689190611b2c565b6104c5565b60405161017a9190611e1f565b60405180910390f35b61018b6105dd565b60405161019b9493929190612256565b60405180910390f35b6101be60048036038101906101b99190611b2c565b610e6e565b6040516101cf9594939291906122b7565b60405180910390f35b6101f260048036038101906101ed9190612480565b6110c4565b6040516101ff919061251f565b60405180910390f35b610222600480360381019061021d9190611b2c565b611145565b604051610233959493929190612549565b60405180910390f35b610244611298565b604051610251919061251f565b60405180910390f35b61026261129e565b60405161026f919061251f565b60405180910390f35b610292600480360381019061028d91906125aa565b6112a4565b60405161029f919061251f565b60405180910390f35b6102c260048036038101906102bd919061262d565b611336565b6040516102cf919061251f565b60405180910390f35b6102e06113b1565b6040516102ed919061251f565b60405180910390f35b6102fe6113b7565b60405161030b919061251f565b60405180910390f35b61032e60048036038101906103299190612689565b6113bd565b60405161033b919061251f565b60405180910390f35b60026020528060005260406000206000915090508060000154908060010154908060020180546103739061278f565b80601f016020809104026020016040519081016040528092919081815260200182805461039f9061278f565b80156103ec5780601f106103c1576101008083540402835291602001916103ec565b820191906000526020600020905b8154815290600101906020018083116103cf57829003601f168201915b5050505050905083565b6003602052816000526040600020818154811061041257600080fd5b9060005260206000209060030201600091509150508060000180546104369061278f565b80601f01602080910402602001604051908101604052809291908181526020018280546104629061278f565b80156104af5780601f10610484576101008083540402835291602001916104af565b820191906000526020600020905b81548152906001019060200180831161049257829003601f168201915b5050505050908060010154908060020154905083565b606060036000838152602001908152602001600020805480602002602001604051908101604052809291908181526020016000905b828210156105d2578382906000526020600020906003020160405180606001604052908160008201805461052d9061278f565b80601f01602080910402602001604051908101604052809291908181526020018280546105599061278f565b80156105a65780601f1061057b576101008083540402835291602001916105a6565b820191906000526020600020905b81548152906001019060200180831161058957829003601f168201915b5050505050815260200160018201548152602001600282015481525050815260200190600101906104fa565b505050509050919050565b606080606080600060045467ffffffffffffffff81111561060157610600612330565b5b60405190808252806020026020018201604052801561063a57816020015b610627611a30565b81526020019060019003908161061f5790505b509050600060055467ffffffffffffffff81111561065b5761065a612330565b5b60405190808252806020026020018201604052801561069457816020015b610681611a71565b8152602001906001900390816106795790505b509050600060065467ffffffffffffffff8111156106b5576106b4612330565b5b6040519080825280602002602001820160405280156106ee57816020015b6106db611aa0565b8152602001906001900390816106d35790505b509050600060075467ffffffffffffffff81111561070f5761070e612330565b5b60405190808252806020026020018201604052801561074857816020015b610735611ac1565b81526020019060019003908161072d5790505b50905060005b6004548110156109255760008060018361076891906127ef565b81526020019081526020016000206040518060a00160405290816000820154815260200160018201805461079b9061278f565b80601f01602080910402602001604051908101604052809291908181526020018280546107c79061278f565b80156108145780601f106107e957610100808354040283529160200191610814565b820191906000526020600020905b8154815290600101906020018083116107f757829003601f168201915b50505050508152602001600282015481526020016003820180546108379061278f565b80601f01602080910402602001604051908101604052809291908181526020018280546108639061278f565b80156108b05780601f10610885576101008083540402835291602001916108b0565b820191906000526020600020905b81548152906001019060200180831161089357829003601f168201915b505050505081526020016004820160009054906101000a900460ff1660028111156108de576108dd611e6d565b5b60028111156108f0576108ef611e6d565b5b8152505085828151811061090757610906612823565b5b6020026020010181905250808061091d90612852565b91505061074e565b5060005b600554811015610be0576001600060018361094491906127ef565b81526020019081526020016000206040518060a0016040529081600082015481526020016001820180546109779061278f565b80601f01602080910402602001604051908101604052809291908181526020018280546109a39061278f565b80156109f05780601f106109c5576101008083540402835291602001916109f0565b820191906000526020600020905b8154815290600101906020018083116109d357829003601f168201915b50505050508152602001600282018054610a099061278f565b80601f0160208091040260200160405190810160405280929190818152602001828054610a359061278f565b8015610a825780601f10610a5757610100808354040283529160200191610a82565b820191906000526020600020905b815481529060010190602001808311610a6557829003601f168201915b50505050508152602001600382018054610a9b9061278f565b80601f0160208091040260200160405190810160405280929190818152602001828054610ac79061278f565b8015610b145780601f10610ae957610100808354040283529160200191610b14565b820191906000526020600020905b815481529060010190602001808311610af757829003601f168201915b50505050508152602001600482018054610b2d9061278f565b80601f0160208091040260200160405190810160405280929190818152602001828054610b599061278f565b8015610ba65780601f10610b7b57610100808354040283529160200191610ba6565b820191906000526020600020905b815481529060010190602001808311610b8957829003601f168201915b505050505081525050848281518110610bc257610bc1612823565b5b60200260200101819052508080610bd890612852565b915050610929565b5060005b600654811015610cef5760026000600183610bff91906127ef565b81526020019081526020016000206040518060600160405290816000820154815260200160018201548152602001600282018054610c3c9061278f565b80601f0160208091040260200160405190810160405280929190818152602001828054610c689061278f565b8015610cb55780601f10610c8a57610100808354040283529160200191610cb5565b820191906000526020600020905b815481529060010190602001808311610c9857829003601f168201915b505050505081525050838281518110610cd157610cd0612823565b5b60200260200101819052508080610ce790612852565b915050610be4565b506000805b600454811015610e5657600060036000600184610d1191906127ef565b8152602001908152602001600020905060005b8180549050811015610e4157818181548110610d4357610d42612823565b5b9060005260206000209060030201604051806060016040529081600082018054610d6c9061278f565b80601f0160208091040260200160405190810160405280929190818152602001828054610d989061278f565b8015610de55780601f10610dba57610100808354040283529160200191610de5565b820191906000526020600020905b815481529060010190602001808311610dc857829003601f168201915b5050505050815260200160018201548152602001600282015481525050858581518110610e1557610e14612823565b5b60200260200101819052508380610e2b90612852565b9450508080610e3990612852565b915050610d24565b50508080610e4e90612852565b915050610cf4565b50848484849850985098509850505050505090919293565b6001602052806000526040600020600091509050806000015490806001018054610e979061278f565b80601f0160208091040260200160405190810160405280929190818152602001828054610ec39061278f565b8015610f105780601f10610ee557610100808354040283529160200191610f10565b820191906000526020600020905b815481529060010190602001808311610ef357829003601f168201915b505050505090806002018054610f259061278f565b80601f0160208091040260200160405190810160405280929190818152602001828054610f519061278f565b8015610f9e5780601f10610f7357610100808354040283529160200191610f9e565b820191906000526020600020905b815481529060010190602001808311610f8157829003601f168201915b505050505090806003018054610fb39061278f565b80601f0160208091040260200160405190810160405280929190818152602001828054610fdf9061278f565b801561102c5780601f106110015761010080835404028352916020019161102c565b820191906000526020600020905b81548152906001019060200180831161100f57829003601f168201915b5050505050908060040180546110419061278f565b80601f016020809104026020016040519081016040528092919081815260200182805461106d9061278f565b80156110ba5780601f1061108f576101008083540402835291602001916110ba565b820191906000526020600020905b81548152906001019060200180831161109d57829003601f168201915b5050505050905085565b6000600460008154809291906110d990612852565b91905055506110ea8585858561143e565b611129576040517f08c379a0000000000000000000000000000000000000000000000000000000008152600401611120906128e6565b60405180910390fd5b61113860045486868686611493565b6004549050949350505050565b600060205280600052604060002060009150905080600001549080600101805461116e9061278f565b80601f016020809104026020016040519081016040528092919081815260200182805461119a9061278f565b80156111e75780601f106111bc576101008083540402835291602001916111e7565b820191906000526020600020905b8154815290600101906020018083116111ca57829003601f168201915b5050505050908060020154908060030180546112029061278f565b80601f016020809104026020016040519081016040528092919081815260200182805461122e9061278f565b801561127b5780601f106112505761010080835404028352916020019161127b565b820191906000526020600020905b81548152906001019060200180831161125e57829003601f168201915b5050505050908060040160009054906101000a900460ff16905085565b60075481565b60045481565b6000600760008154809291906112b990612852565b91905055506112ca85858585611585565b611309576040517f08c379a000000000000000000000000000000000000000000000000000000000815260040161130090612952565b60405180910390fd5b61131585858585611608565b60036000868152602001908152602001600020805490509050949350505050565b60006006600081548092919061134b90612852565b919050555061135a8383611861565b611399576040517f08c379a0000000000000000000000000000000000000000000000000000000008152600401611390906129be565b60405180910390fd5b6113a6600654848461188b565b600654905092915050565b60065481565b60055481565b6000600560008154809291906113d290612852565b91905055506113e385858585611918565b611422576040517f08c379a000000000000000000000000000000000000000000000000000000000815260040161141990612a2a565b60405180910390fd5b6114316005548686868661195d565b6005549050949350505050565b6000808551148061144f5750600084145b8061145b575060008351145b806114785750600282600281111561147657611475611e6d565b5b115b15611486576000905061148b565b600190505b949350505050565b6040518060a001604052808681526020018581526020018481526020018381526020018260028111156114c9576114c8611e6d565b5b8152506000808781526020019081526020016000206000820151816000015560208201518160010190816114fd9190612bf6565b5060408201518160020155606082015181600301908161151d9190612bf6565b5060808201518160040160006101000a81548160ff0219169083600281111561154957611548611e6d565b5b0217905550905050847faed33e54b4b0bc174eb213d3e5090df6d7807f8e6ffda1c83b13657cb7fe6ea560405160405180910390a25050505050565b6000806000808781526020019081526020016000206000015414806115ab575060008451145b806115cc575060006001600085815260200190815260200160002060000154145b806115ed575060006002600084815260200190815260200160002060000154145b156115fb5760009050611600565b600190505b949350505050565b6000600160008481526020019081526020016000206000015403611661576040517f08c379a000000000000000000000000000000000000000000000000000000000815260040161165890612d14565b60405180910390fd5b60006002600083815260200190815260200160002060000154036116ba576040517f08c379a00000000000000000000000000000000000000000000000000000000081526004016116b190612d80565b60405180910390fd5b60005b60036000868152602001908152602001600020805490508110156117a8578260036000878152602001908152602001600020828154811061170157611700612823565b5b90600052602060002090600302016001015414158061175657508160036000878152602001908152602001600020828154811061174157611740612823565b5b90600052602060002090600302016002015414155b611795576040517f08c379a000000000000000000000000000000000000000000000000000000000815260040161178c90612e12565b60405180910390fd5b80806117a090612852565b9150506116bd565b5060036000858152602001908152602001600020604051806060016040528085815260200184815260200183815250908060018154018082558091505060019003906000526020600020906003020160009091909190915060008201518160000190816118159190612bf6565b50602082015181600101556040820151816002015550508082857f0d3bf3ffcbec845f676c5741509c01243a2a6dfec049e7011fb0241ee3b0ab6860405160405180910390a450505050565b600080831480611872575060008251145b156118805760009050611885565b600190505b92915050565b60405180606001604052808481526020018381526020018281525060026000858152602001908152602001600020600082015181600001556020820151816001015560408201518160020190816118e29190612bf6565b50905050827f3204accbe9bb969073dba3c2882c24196056144e999f53bd3217852392749ed960405160405180910390a2505050565b6000808551148061192a575060008451145b80611936575060008351145b80611942575060008251145b156119505760009050611955565b600190505b949350505050565b6040518060a0016040528086815260200185815260200184815260200183815260200182815250600160008781526020019081526020016000206000820151816000015560208201518160010190816119b69190612bf6565b5060408201518160020190816119cc9190612bf6565b5060608201518160030190816119e29190612bf6565b5060808201518160040190816119f89190612bf6565b50905050847ffa87eff877135c9cdcf284b2f892138da014d35c3662dc470b91012b3dbb6b9960405160405180910390a25050505050565b6040518060a001604052806000815260200160608152602001600081526020016060815260200160006002811115611a6b57611a6a611e6d565b5b81525090565b6040518060a0016040528060008152602001606081526020016060815260200160608152602001606081525090565b60405180606001604052806000815260200160008152602001606081525090565b60405180606001604052806060815260200160008152602001600081525090565b6000604051905090565b600080fd5b600080fd5b6000819050919050565b611b0981611af6565b8114611b1457600080fd5b50565b600081359050611b2681611b00565b92915050565b600060208284031215611b4257611b41611aec565b5b6000611b5084828501611b17565b91505092915050565b611b6281611af6565b82525050565b600081519050919050565b600082825260208201905092915050565b60005b83811015611ba2578082015181840152602081019050611b87565b60008484015250505050565b6000601f19601f8301169050919050565b6000611bca82611b68565b611bd48185611b73565b9350611be4818560208601611b84565b611bed81611bae565b840191505092915050565b6000606082019050611c0d6000830186611b59565b611c1a6020830185611b59565b8181036040830152611c2c8184611bbf565b9050949350505050565b60008060408385031215611c4d57611c4c611aec565b5b6000611c5b85828601611b17565b9250506020611c6c85828601611b17565b9150509250929050565b60006060820190508181036000830152611c908186611bbf565b9050611c9f6020830185611b59565b611cac6040830184611b59565b949350505050565b600081519050919050565b600082825260208201905092915050565b6000819050602082019050919050565b600082825260208201905092915050565b6000611cfc82611b68565b611d068185611ce0565b9350611d16818560208601611b84565b611d1f81611bae565b840191505092915050565b611d3381611af6565b82525050565b60006060830160008301518482036000860152611d568282611cf1565b9150506020830151611d6b6020860182611d2a565b506040830151611d7e6040860182611d2a565b508091505092915050565b6000611d958383611d39565b905092915050565b6000602082019050919050565b6000611db582611cb4565b611dbf8185611cbf565b935083602082028501611dd185611cd0565b8060005b85811015611e0d5784840389528151611dee8582611d89565b9450611df983611d9d565b925060208a01995050600181019050611dd5565b50829750879550505050505092915050565b60006020820190508181036000830152611e398184611daa565b905092915050565b600081519050919050565b600082825260208201905092915050565b6000819050602082019050919050565b7f4e487b7100000000000000000000000000000000000000000000000000000000600052602160045260246000fd5b60038110611ead57611eac611e6d565b5b50565b6000819050611ebe82611e9c565b919050565b6000611ece82611eb0565b9050919050565b611ede81611ec3565b82525050565b600060a083016000830151611efc6000860182611d2a565b5060208301518482036020860152611f148282611cf1565b9150506040830151611f296040860182611d2a565b5060608301518482036060860152611f418282611cf1565b9150506080830151611f566080860182611ed5565b508091505092915050565b6000611f6d8383611ee4565b905092915050565b6000602082019050919050565b6000611f8d82611e41565b611f978185611e4c565b935083602082028501611fa985611e5d565b8060005b85811015611fe55784840389528151611fc68582611f61565b9450611fd183611f75565b925060208a01995050600181019050611fad565b50829750879550505050505092915050565b600081519050919050565b600082825260208201905092915050565b6000819050602082019050919050565b600060a08301600083015161203b6000860182611d2a565b50602083015184820360208601526120538282611cf1565b9150506040830151848203604086015261206d8282611cf1565b915050606083015184820360608601526120878282611cf1565b915050608083015184820360808601526120a18282611cf1565b9150508091505092915050565b60006120ba8383612023565b905092915050565b6000602082019050919050565b60006120da82611ff7565b6120e48185612002565b9350836020820285016120f685612013565b8060005b85811015612132578484038952815161211385826120ae565b945061211e836120c2565b925060208a019950506001810190506120fa565b50829750879550505050505092915050565b600081519050919050565b600082825260208201905092915050565b6000819050602082019050919050565b60006060830160008301516121886000860182611d2a565b50602083015161219b6020860182611d2a565b50604083015184820360408601526121b38282611cf1565b9150508091505092915050565b60006121cc8383612170565b905092915050565b6000602082019050919050565b60006121ec82612144565b6121f6818561214f565b93508360208202850161220885612160565b8060005b85811015612244578484038952815161222585826121c0565b9450612230836121d4565b925060208a0199505060018101905061220c565b50829750879550505050505092915050565b600060808201905081810360008301526122708187611f82565b9050818103602083015261228481866120cf565b9050818103604083015261229881856121e1565b905081810360608301526122ac8184611daa565b905095945050505050565b600060a0820190506122cc6000830188611b59565b81810360208301526122de8187611bbf565b905081810360408301526122f28186611bbf565b905081810360608301526123068185611bbf565b9050818103608083015261231a8184611bbf565b90509695505050505050565b600080fd5b600080fd5b7f4e487b7100000000000000000000000000000000000000000000000000000000600052604160045260246000fd5b61236882611bae565b810181811067ffffffffffffffff8211171561238757612386612330565b5b80604052505050565b600061239a611ae2565b90506123a6828261235f565b919050565b600067ffffffffffffffff8211156123c6576123c5612330565b5b6123cf82611bae565b9050602081019050919050565b82818337600083830152505050565b60006123fe6123f9846123ab565b612390565b90508281526020810184848401111561241a5761241961232b565b5b6124258482856123dc565b509392505050565b600082601f83011261244257612441612326565b5b81356124528482602086016123eb565b91505092915050565b6003811061246857600080fd5b50565b60008135905061247a8161245b565b92915050565b6000806000806080858703121561249a57612499611aec565b5b600085013567ffffffffffffffff8111156124b8576124b7611af1565b5b6124c48782880161242d565b94505060206124d587828801611b17565b935050604085013567ffffffffffffffff8111156124f6576124f5611af1565b5b6125028782880161242d565b92505060606125138782880161246b565b91505092959194509250565b60006020820190506125346000830184611b59565b92915050565b61254381611ec3565b82525050565b600060a08201905061255e6000830188611b59565b81810360208301526125708187611bbf565b905061257f6040830186611b59565b81810360608301526125918185611bbf565b90506125a0608083018461253a565b9695505050505050565b600080600080608085870312156125c4576125c3611aec565b5b60006125d287828801611b17565b945050602085013567ffffffffffffffff8111156125f3576125f2611af1565b5b6125ff8782880161242d565b935050604061261087828801611b17565b925050606061262187828801611b17565b91505092959194509250565b6000806040838503121561264457612643611aec565b5b600061265285828601611b17565b925050602083013567ffffffffffffffff81111561267357612672611af1565b5b61267f8582860161242d565b9150509250929050565b600080600080608085870312156126a3576126a2611aec565b5b600085013567ffffffffffffffff8111156126c1576126c0611af1565b5b6126cd8782880161242d565b945050602085013567ffffffffffffffff8111156126ee576126ed611af1565b5b6126fa8782880161242d565b935050604085013567ffffffffffffffff81111561271b5761271a611af1565b5b6127278782880161242d565b925050606085013567ffffffffffffffff81111561274857612747611af1565b5b6127548782880161242d565b91505092959194509250565b7f4e487b7100000000000000000000000000000000000000000000000000000000600052602260045260246000fd5b600060028204905060018216806127a757607f821691505b6020821081036127ba576127b9612760565b5b50919050565b7f4e487b7100000000000000000000000000000000000000000000000000000000600052601160045260246000fd5b60006127fa82611af6565b915061280583611af6565b925082820190508082111561281d5761281c6127c0565b5b92915050565b7f4e487b7100000000000000000000000000000000000000000000000000000000600052603260045260246000fd5b600061285d82611af6565b91507fffffffffffffffffffffffffffffffffffffffffffffffffffffffffffffffff820361288f5761288e6127c0565b5b600182019050919050565b7f496e76616c69642070617469656e742064617461000000000000000000000000600082015250565b60006128d0601483611b73565b91506128db8261289a565b602082019050919050565b600060208201905081810360008301526128ff816128c3565b9050919050565b7f496e76616c69642076616363696e6174696f6e20646f73652064617461000000600082015250565b600061293c601d83611b73565b915061294782612906565b602082019050919050565b6000602082019050818103600083015261296b8161292f565b9050919050565b7f496e76616c69642076616363696e61746f722064617461000000000000000000600082015250565b60006129a8601783611b73565b91506129b382612972565b602082019050919050565b600060208201905081810360008301526129d78161299b565b9050919050565b7f496e76616c69642076616363696e652064617461000000000000000000000000600082015250565b6000612a14601483611b73565b9150612a1f826129de565b602082019050919050565b60006020820190508181036000830152612a4381612a07565b9050919050565b60008190508160005260206000209050919050565b60006020601f8301049050919050565b600082821b905092915050565b600060088302612aac7fffffffffffffffffffffffffffffffffffffffffffffffffffffffffffffffff82612a6f565b612ab68683612a6f565b95508019841693508086168417925050509392505050565b6000819050919050565b6000612af3612aee612ae984611af6565b612ace565b611af6565b9050919050565b6000819050919050565b612b0d83612ad8565b612b21612b1982612afa565b848454612a7c565b825550505050565b600090565b612b36612b29565b612b41818484612b04565b505050565b5b81811015612b6557612b5a600082612b2e565b600181019050612b47565b5050565b601f821115612baa57612b7b81612a4a565b612b8484612a5f565b81016020851015612b93578190505b612ba7612b9f85612a5f565b830182612b46565b50505b505050565b600082821c905092915050565b6000612bcd60001984600802612baf565b1980831691505092915050565b6000612be68383612bbc565b9150826002028217905092915050565b612bff82611b68565b67ffffffffffffffff811115612c1857612c17612330565b5b612c22825461278f565b612c2d828285612b69565b600060209050601f831160018114612c605760008415612c4e578287015190505b612c588582612bda565b865550612cc0565b601f198416612c6e86612a4a565b60005b82811015612c9657848901518255600182019150602085019450602081019050612c71565b86831015612cb35784890151612caf601f891682612bbc565b8355505b6001600288020188555050505b505050505050565b7f496e76616c69642076616363696e652069640000000000000000000000000000600082015250565b6000612cfe601283611b73565b9150612d0982612cc8565b602082019050919050565b60006020820190508181036000830152612d2d81612cf1565b9050919050565b7f496e76616c69642076616363696e61746f722069640000000000000000000000600082015250565b6000612d6a601583611b73565b9150612d7582612d34565b602082019050919050565b60006020820190508181036000830152612d9981612d5d565b9050919050565b7f56616363696e6520616c726561647920616464656420666f722070617469656e60008201527f7400000000000000000000000000000000000000000000000000000000000000602082015250565b6000612dfc602183611b73565b9150612e0782612da0565b604082019050919050565b60006020820190508181036000830152612e2b81612def565b905091905056fea264697066735822122000051c72d3c8a4f3d48c2a93f50c9c1b02a694f005f328002701f4f5c0b37b7964736f6c63430008130033",
  "immutableReferences": {},
  "source": "// SPDX-License-Identifier: GPL-3.0\n\npragma solidity ^0.8.19;\n\n/**\n * @title Vaccination Log\n * @dev A smart contract that tracks and logs the vaccination status of patients.\n * @notice This contract allows adding and retrieving data about patients, vaccines, vaccinators, and vaccination doses. It stores the data in mappings, validates the data, and emits events for each addition.\n * @author Justin J Daniel\n */\ncontract VaccinationLog {\n    /**\n     * @dev An enum to represent the gender of a patient\n     */\n    enum Gender {\n        Male,\n        Female,\n        Other\n    }\n\n    /**\n     * @dev A struct to store the data of a patient\n     * @param id The ID of the patient\n     * @param name The name of the patient\n     * @param age The age of the patient\n     * @param location The location of the patient\n     * @param gender The gender of the patient\n     */\n    struct Patient {\n        uint256 id;\n        string name;\n        uint256 age;\n        string location;\n        Gender gender;\n    }\n\n    /**\n     * @dev A struct to store the data of a vaccine\n     * @param id The ID of the vaccine\n     * @param vaccineFor The disease that the vaccine prevents\n     * @param manufacturer The name of the vaccine manufacturer\n     * @param batchId The batch ID of the vaccine\n     * @param expireDate The expiry date of the vaccine\n     */\n    struct Vaccine {\n        uint256 id;\n        string vaccineFor;\n        string manufacturer;\n        string batchId;\n        string expireDate;\n    }\n\n    /**\n     * @dev A struct to store the data of a vaccinator\n     * @param id The ID of the vaccinator\n     * @param licenseNumber The license number of the vaccinator\n     * @param name The name of the vaccinator\n     */\n    struct Vaccinator {\n        uint256 id;\n        uint256 licenseNumber;\n        string name;\n    }\n\n    /**\n     * @dev A struct to store the data of a vaccination dose\n     * @param date The date of the vaccination dose\n     * @param vaccineId The ID of the vaccine used for the dose\n     * @param vaccinatorId The ID of the vaccinator who administered the dose\n     */\n    struct VaccinationDose {\n        string date;\n        uint256 vaccineId;\n        uint256 vaccinatorId;\n    }\n\n    /**\n     * @dev A mapping from patient ID to Patient struct\n     */\n    mapping(uint256 => Patient) public patients;\n\n    /**\n     * @dev A mapping from vaccine ID to Vaccine struct\n     */\n    mapping(uint256 => Vaccine) public vaccines;\n\n    /**\n     * @dev A mapping from vaccinator ID to Vaccinator struct\n     */\n    mapping(uint256 => Vaccinator) public vaccinators;\n\n    /**\n     * @dev A mapping from patient ID to an array of VaccinationDose structs\n     */\n    mapping(uint256 => VaccinationDose[]) public patientVaccinations;\n\n    /**\n     * @dev An event that is emitted when a new patient is added to the contract\n     * @param id The ID of the added patient\n     */\n    event PatientAdded(uint256 indexed id);\n\n    /**\n     * @dev An event that is emitted when a new vaccine is added to the contract\n     * @param id The ID of the added vaccine\n     */\n    event VaccineAdded(uint256 indexed id);\n\n    /**\n     * @dev An event that is emitted when a new vaccinator is added to the contract\n     * @param id The ID of the added vaccinator\n     */\n    event VaccinatorAdded(uint256 indexed id);\n\n    /**\n     * @dev An event that is emitted when a new vaccination dose is added to the contract\n     * @param patientId The ID of the patient who received the dose\n     * @param vaccineId The ID of the vaccine used for the dose\n     * @param vaccinatorId The ID of the vaccinator who administered the dose\n     */\n    event VaccinationDoseAdded(\n        uint256 indexed patientId,\n        uint256 indexed vaccineId,\n        uint256 indexed vaccinatorId\n    );\n\n    uint256 public patientsCount;\n    uint256 public vaccinesCount;\n    uint256 public vaccinatorsCount;\n    uint256 public vaccinationDoseCount;\n\n    /**\n     * @dev Create a new patient with unique id\n     * @param _id unique id of patient\n     * @param _name name of patient\n     * @param _age age of patient\n     * @param _gender sex of patient\n     * @param _location address of patient\n     */\n    function addPatient(\n        uint256 _id,\n        string memory _name,\n        uint256 _age,\n        string memory _location,\n        Gender _gender\n    ) private {\n        patients[_id] = Patient(_id, _name, _age, _location, _gender);\n        emit PatientAdded(_id);\n    }\n\n    /**\n     * @dev Adds a new vaccine to the contract\n     * @param _id The ID of the vaccine\n     * @param _vaccineFor The disease that the vaccine prevents\n     * @param _manufacturer The name of the vaccine manufacturer\n     * @param _batchId The batch ID of the vaccine\n     * @param _expireDate The expiry date of the vaccine\n     */\n    function addVaccine(\n        uint256 _id,\n        string memory _vaccineFor,\n        string memory _manufacturer,\n        string memory _batchId,\n        string memory _expireDate\n    ) private {\n        vaccines[_id] = Vaccine(\n            _id,\n            _vaccineFor,\n            _manufacturer,\n            _batchId,\n            _expireDate\n        );\n        emit VaccineAdded(_id);\n    }\n\n    /**\n     * @dev Add a new vaccinator with unique id\n     * @param _id unique id of vaccinator\n     * @param _licenseNumber license number of vaccinator\n     * @param _name name of vaccinator\n     */\n    function addVaccinator(\n        uint256 _id,\n        uint256 _licenseNumber,\n        string memory _name\n    ) private {\n        vaccinators[_id] = Vaccinator(_id, _licenseNumber, _name);\n        emit VaccinatorAdded(_id);\n    }\n\n    /**\n     * @dev Add a new vaccination dose for a patient\n     * @param _patientId id of patient\n     * @param _date date of vaccination dose\n     * @param _vaccineId id of vaccine used for dose\n     * @param _vaccinatorId id of vaccinator who administered dose\n     */\n    function addVaccinationDose(\n        uint256 _patientId,\n        string memory _date,\n        uint256 _vaccineId,\n        uint256 _vaccinatorId\n    ) private {\n        require(vaccines[_vaccineId].id != 0, 'Invalid vaccine id');\n        require(vaccinators[_vaccinatorId].id != 0, 'Invalid vaccinator id');\n\n        for (uint256 i = 0; i < patientVaccinations[_patientId].length; i++) {\n            require(\n                patientVaccinations[_patientId][i].vaccineId != _vaccineId ||\n                    patientVaccinations[_patientId][i].vaccinatorId !=\n                    _vaccinatorId,\n                'Vaccine already added for patient'\n            );\n        }\n\n        patientVaccinations[_patientId].push(\n            VaccinationDose(_date, _vaccineId, _vaccinatorId)\n        );\n        emit VaccinationDoseAdded(_patientId, _vaccineId, _vaccinatorId);\n    }\n\n    /**\n     * @dev Returns an array of vaccination doses for a given patient ID\n     * @param _patientId The ID of the patient\n     * @return An array of VaccinationDose structs\n     */\n    function getPatientVaccinations(\n        uint256 _patientId\n    ) public view returns (VaccinationDose[] memory) {\n        return patientVaccinations[_patientId];\n    }\n\n    /**\n     * @dev Returns all the data stored in the contract\n     * @return Four arrays of structs: Patient, Vaccine, Vaccinator and VaccinationDose\n     */\n    function getAllData()\n        public\n        view\n        returns (\n            Patient[] memory,\n            Vaccine[] memory,\n            Vaccinator[] memory,\n            VaccinationDose[] memory\n        )\n    {\n        Patient[] memory _patients = new Patient[](patientsCount);\n        Vaccine[] memory _vaccines = new Vaccine[](vaccinesCount);\n        Vaccinator[] memory _vaccinators = new Vaccinator[](vaccinatorsCount);\n        VaccinationDose[] memory _vaccinationDoses = new VaccinationDose[](\n            vaccinationDoseCount\n        );\n\n        for (uint256 i = 0; i < patientsCount; i++) {\n            _patients[i] = patients[i + 1];\n        }\n\n        for (uint256 i = 0; i < vaccinesCount; i++) {\n            _vaccines[i] = vaccines[i + 1];\n        }\n\n        for (uint256 i = 0; i < vaccinatorsCount; i++) {\n            _vaccinators[i] = vaccinators[i + 1];\n        }\n\n        uint256 index = 0;\n        for (uint256 i = 0; i < patientsCount; i++) {\n            VaccinationDose[] storage vaccinationDoses = patientVaccinations[\n                i + 1\n            ];\n            for (uint256 j = 0; j < vaccinationDoses.length; j++) {\n                _vaccinationDoses[index] = vaccinationDoses[j];\n                index++;\n            }\n        }\n\n        return (_patients, _vaccines, _vaccinators, _vaccinationDoses);\n    }\n\n    /**\n     * @dev Checks if the patient data is valid\n     * @param _name The name of the patient\n     * @param _age The age of the patient\n     * @param _location The location of the patient\n     * @param _gender The gender of the patient\n     * @return A boolean value indicating if the data is valid or not\n     */\n    function validatePatientData(\n        string memory _name,\n        uint256 _age,\n        string memory _location,\n        Gender _gender\n    ) private pure returns (bool) {\n        if (\n            bytes(_name).length == 0 ||\n            _age == 0 ||\n            bytes(_location).length == 0 ||\n            uint256(_gender) > 2\n        ) {\n            return false;\n        }\n        return true;\n    }\n\n    /**\n     * @dev Checks if the vaccine data is valid\n     * @param _vaccineFor The disease that the vaccine prevents\n     * @param _manufacturer The name of the vaccine manufacturer\n     * @param _batchId The batch ID of the vaccine\n     * @param _expireDate The expiry date of the vaccine\n     * @return A boolean value indicating if the data is valid or not\n     */\n    function validateVaccineData(\n        string memory _vaccineFor,\n        string memory _manufacturer,\n        string memory _batchId,\n        string memory _expireDate\n    ) private pure returns (bool) {\n        if (\n            bytes(_vaccineFor).length == 0 ||\n            bytes(_manufacturer).length == 0 ||\n            bytes(_batchId).length == 0 ||\n            bytes(_expireDate).length == 0\n        ) {\n            return false;\n        }\n        return true;\n    }\n\n    /**\n     * @dev Checks if the vaccinator data is valid\n     * @param _licenseNumber The license number of the vaccinator\n     * @param _name The name of the vaccinator\n     * @return A boolean value indicating if the data is valid or not\n     */\n    function validateVaccinatorData(\n        uint256 _licenseNumber,\n        string memory _name\n    ) private pure returns (bool) {\n        if (_licenseNumber == 0 || bytes(_name).length == 0) {\n            return false;\n        }\n        return true;\n    }\n\n    /**\n     * @dev Checks if the vaccination dose data is valid\n     * @param _patientId The ID of the patient who received the dose\n     * @param _date The date of the vaccination dose\n     * @param _vaccineId The ID of the vaccine used for the dose\n     * @param _vaccinatorId The ID of the vaccinator who administered the dose\n     * @return A boolean value indicating if the data is valid or not\n     */\n    function validateVaccinationDoseData(\n        uint256 _patientId,\n        string memory _date,\n        uint256 _vaccineId,\n        uint256 _vaccinatorId\n    ) private view returns (bool) {\n        if (\n            patients[_patientId].id == 0 ||\n            bytes(_date).length == 0 ||\n            vaccines[_vaccineId].id == 0 ||\n            vaccinators[_vaccinatorId].id == 0\n        ) {\n            return false;\n        }\n        return true;\n    }\n\n    /**\n     * @dev Adds a new patient to the contract with validation\n     * @param _name The name of the patient\n     * @param _age The age of the patient\n     * @param _location The location of the patient\n     * @param _gender The gender of the patient\n     * @return The ID of the added patient\n     */\n    function addPatientWithValidation(\n        string memory _name,\n        uint256 _age,\n        string memory _location,\n        Gender _gender\n    ) public returns (uint256) {\n        patientsCount++;\n        require(\n            validatePatientData(_name, _age, _location, _gender),\n            'Invalid patient data'\n        );\n        addPatient(patientsCount, _name, _age, _location, _gender);\n        return patientsCount;\n    }\n\n    /**\n     * @dev Adds a new vaccine to the contract with validation\n     * @param _vaccineFor The disease that the vaccine prevents\n     * @param _manufacturer The name of the vaccine manufacturer\n     * @param _batchId The batch ID of the vaccine\n     * @param _expireDate The expiry date of the vaccine\n     * @return The ID of the added vaccine\n     */\n    function addVaccineWithValidation(\n        string memory _vaccineFor,\n        string memory _manufacturer,\n        string memory _batchId,\n        string memory _expireDate\n    ) public returns (uint256) {\n        vaccinesCount++;\n        require(\n            validateVaccineData(\n                _vaccineFor,\n                _manufacturer,\n                _batchId,\n                _expireDate\n            ),\n            'Invalid vaccine data'\n        );\n        addVaccine(\n            vaccinesCount,\n            _vaccineFor,\n            _manufacturer,\n            _batchId,\n            _expireDate\n        );\n        return vaccinesCount;\n    }\n\n    /**\n     * @dev Adds a new vaccinator to the contract with validation\n     * @param _licenseNumber The license number of the vaccinator\n     * @param _name The name of the vaccinator\n     * @return The ID of the added vaccinator\n     */\n    function addVaccinatorWithValidation(\n        uint256 _licenseNumber,\n        string memory _name\n    ) public returns (uint256) {\n        vaccinatorsCount++;\n        require(\n            validateVaccinatorData(_licenseNumber, _name),\n            'Invalid vaccinator data'\n        );\n        addVaccinator(vaccinatorsCount, _licenseNumber, _name);\n        return vaccinatorsCount;\n    }\n\n    /**\n     * @dev Adds a new vaccination dose to the contract with validation\n     * @param _patientId The ID of the patient who received the dose\n     * @param _date The date of the vaccination dose\n     * @param _vaccineId The ID of the vaccine used for the dose\n     * @param _vaccinatorId The ID of the vaccinator who administered the dose\n     * @return The number of vaccination doses for the patient\n     */\n    function addVaccinationDoseWithValidation(\n        uint256 _patientId,\n        string memory _date,\n        uint256 _vaccineId,\n        uint256 _vaccinatorId\n    ) public returns (uint256) {\n        vaccinationDoseCount++;\n        require(\n            validateVaccinationDoseData(\n                _patientId,\n                _date,\n                _vaccineId,\n                _vaccinatorId\n            ),\n            'Invalid vaccination dose data'\n        );\n        addVaccinationDose(_patientId, _date, _vaccineId, _vaccinatorId);\n        return patientVaccinations[_patientId].length;\n    }\n}\n",
  "sourcePath": "/home/justinj/workspace/projects/Vacci-Log/server/contracts/VaccinationLog.sol",
  "compiler": {
    "name": "solc",
    "version": "0.8.19+commit.7dd6d404.Emscripten.clang"
  },
  "schemaVersion": "3.4.13",
  "updatedAt": "2023-04-01T17:39:48.779Z",
  "devdoc": {
    "author": "Justin J Daniel",
    "details": "A smart contract that tracks and logs the vaccination status of patients.",
    "events": {
      "PatientAdded(uint256)": {
        "details": "An event that is emitted when a new patient is added to the contract",
        "params": {
          "id": "The ID of the added patient"
        }
      },
      "VaccinationDoseAdded(uint256,uint256,uint256)": {
        "details": "An event that is emitted when a new vaccination dose is added to the contract",
        "params": {
          "patientId": "The ID of the patient who received the dose",
          "vaccinatorId": "The ID of the vaccinator who administered the dose",
          "vaccineId": "The ID of the vaccine used for the dose"
        }
      },
      "VaccinatorAdded(uint256)": {
        "details": "An event that is emitted when a new vaccinator is added to the contract",
        "params": {
          "id": "The ID of the added vaccinator"
        }
      },
      "VaccineAdded(uint256)": {
        "details": "An event that is emitted when a new vaccine is added to the contract",
        "params": {
          "id": "The ID of the added vaccine"
        }
      }
    },
    "kind": "dev",
    "methods": {
      "addPatientWithValidation(string,uint256,string,uint8)": {
        "details": "Adds a new patient to the contract with validation",
        "params": {
          "_age": "The age of the patient",
          "_gender": "The gender of the patient",
          "_location": "The location of the patient",
          "_name": "The name of the patient"
        },
        "returns": {
          "_0": "The ID of the added patient"
        }
      },
      "addVaccinationDoseWithValidation(uint256,string,uint256,uint256)": {
        "details": "Adds a new vaccination dose to the contract with validation",
        "params": {
          "_date": "The date of the vaccination dose",
          "_patientId": "The ID of the patient who received the dose",
          "_vaccinatorId": "The ID of the vaccinator who administered the dose",
          "_vaccineId": "The ID of the vaccine used for the dose"
        },
        "returns": {
          "_0": "The number of vaccination doses for the patient"
        }
      },
      "addVaccinatorWithValidation(uint256,string)": {
        "details": "Adds a new vaccinator to the contract with validation",
        "params": {
          "_licenseNumber": "The license number of the vaccinator",
          "_name": "The name of the vaccinator"
        },
        "returns": {
          "_0": "The ID of the added vaccinator"
        }
      },
      "addVaccineWithValidation(string,string,string,string)": {
        "details": "Adds a new vaccine to the contract with validation",
        "params": {
          "_batchId": "The batch ID of the vaccine",
          "_expireDate": "The expiry date of the vaccine",
          "_manufacturer": "The name of the vaccine manufacturer",
          "_vaccineFor": "The disease that the vaccine prevents"
        },
        "returns": {
          "_0": "The ID of the added vaccine"
        }
      },
      "getAllData()": {
        "details": "Returns all the data stored in the contract",
        "returns": {
          "_0": "Four arrays of structs: Patient, Vaccine, Vaccinator and VaccinationDose"
        }
      },
      "getPatientVaccinations(uint256)": {
        "details": "Returns an array of vaccination doses for a given patient ID",
        "params": {
          "_patientId": "The ID of the patient"
        },
        "returns": {
          "_0": "An array of VaccinationDose structs"
        }
      }
    },
    "stateVariables": {
      "patientVaccinations": {
        "details": "A mapping from patient ID to an array of VaccinationDose structs"
      },
      "patients": {
        "details": "A mapping from patient ID to Patient struct"
      },
      "vaccinators": {
        "details": "A mapping from vaccinator ID to Vaccinator struct"
      },
      "vaccines": {
        "details": "A mapping from vaccine ID to Vaccine struct"
      }
    },
    "title": "Vaccination Log",
    "version": 1
  },
  "userdoc": {
    "kind": "user",
    "methods": {},
    "notice": "This contract allows adding and retrieving data about patients, vaccines, vaccinators, and vaccination doses. It stores the data in mappings, validates the data, and emits events for each addition.",
    "version": 1
  }
}