{
  "_format": "hh-sol-artifact-1",
  "contractName": "VaccinationLog",
  "sourceName": "contracts/VaccinationLog.sol",
  "abi": [
    {
      "inputs": [
        {
          "internalType": "uint256",
          "name": "",
          "type": "uint256"
        },
        {
          "internalType": "uint256",
          "name": "",
          "type": "uint256"
        }
      ],
      "name": "PatientDoseDetails",
      "outputs": [
        {
          "internalType": "uint256",
          "name": "patientUID",
          "type": "uint256"
        },
        {
          "internalType": "uint256",
          "name": "vaccineId",
          "type": "uint256"
        },
        {
          "internalType": "string",
          "name": "vaccineBatchId",
          "type": "string"
        },
        {
          "internalType": "string",
          "name": "vaccineBottleNumber",
          "type": "string"
        },
        {
          "internalType": "string",
          "name": "vaccinatedDate",
          "type": "string"
        },
        {
          "internalType": "string",
          "name": "vaccinatorId",
          "type": "string"
        }
      ],
      "stateMutability": "view",
      "type": "function"
    },
    {
      "inputs": [
        {
          "internalType": "uint256",
          "name": "",
          "type": "uint256"
        }
      ],
      "name": "PatientUID",
      "outputs": [
        {
          "internalType": "uint256",
          "name": "id",
          "type": "uint256"
        },
        {
          "internalType": "string",
          "name": "name",
          "type": "string"
        },
        {
          "internalType": "uint256",
          "name": "age",
          "type": "uint256"
        },
        {
          "internalType": "enum VaccinationLog.Sex",
          "name": "gender",
          "type": "uint8"
        },
        {
          "internalType": "string",
          "name": "location",
          "type": "string"
        }
      ],
      "stateMutability": "view",
      "type": "function"
    },
    {
      "inputs": [
        {
          "internalType": "uint256",
          "name": "",
          "type": "uint256"
        }
      ],
      "name": "VaccineUID",
      "outputs": [
        {
          "internalType": "uint256",
          "name": "id",
          "type": "uint256"
        },
        {
          "internalType": "string",
          "name": "vaccineFor",
          "type": "string"
        },
        {
          "internalType": "string",
          "name": "vaccineName",
          "type": "string"
        },
        {
          "internalType": "string",
          "name": "vaccineManufacturer",
          "type": "string"
        }
      ],
      "stateMutability": "view",
      "type": "function"
    },
    {
      "inputs": [
        {
          "internalType": "uint256",
          "name": "id",
          "type": "uint256"
        },
        {
          "internalType": "string",
          "name": "name",
          "type": "string"
        },
        {
          "internalType": "uint256",
          "name": "age",
          "type": "uint256"
        },
        {
          "internalType": "enum VaccinationLog.Sex",
          "name": "gender",
          "type": "uint8"
        },
        {
          "internalType": "string",
          "name": "location",
          "type": "string"
        }
      ],
      "name": "createPatient",
      "outputs": [],
      "stateMutability": "nonpayable",
      "type": "function"
    },
    {
      "inputs": [
        {
          "internalType": "uint256",
          "name": "id",
          "type": "uint256"
        },
        {
          "internalType": "string",
          "name": "vaccineFor",
          "type": "string"
        },
        {
          "internalType": "string",
          "name": "vaccineName",
          "type": "string"
        },
        {
          "internalType": "string",
          "name": "vaccineManufacturer",
          "type": "string"
        }
      ],
      "name": "createVaccine",
      "outputs": [],
      "stateMutability": "nonpayable",
      "type": "function"
    },
    {
      "inputs": [
        {
          "internalType": "uint256",
          "name": "patientUID",
          "type": "uint256"
        },
        {
          "internalType": "uint256",
          "name": "vaccineId",
          "type": "uint256"
        },
        {
          "internalType": "string",
          "name": "vaccineBatchId",
          "type": "string"
        },
        {
          "internalType": "string",
          "name": "vaccineBottleNumber",
          "type": "string"
        },
        {
          "internalType": "string",
          "name": "vaccinatedDate",
          "type": "string"
        },
        {
          "internalType": "string",
          "name": "vaccinatorId",
          "type": "string"
        }
      ],
      "name": "createVaccineDose",
      "outputs": [],
      "stateMutability": "nonpayable",
      "type": "function"
    }
  ],
  "bytecode": "0x608060405234801561001057600080fd5b50611544806100206000396000f3fe608060405234801561001057600080fd5b50600436106100625760003560e01c80632b4fbb48146100675780632fdac4191461009b5780633c9e679a146100d0578063849f1271146101035780638da9477b1461011f578063f2edf5191461013b575b600080fd5b610081600480360381019061007c9190610acd565b610157565b604051610092959493929190610c10565b60405180910390f35b6100b560048036038101906100b09190610c71565b6102aa565b6040516100c796959493929190610cb1565b60405180910390f35b6100ea60048036038101906100e59190610acd565b610513565b6040516100fa9493929190610d2e565b60405180910390f35b61011d60048036038101906101189190610ee2565b6106db565b005b61013960048036038101906101349190610f95565b610809565b005b61015560048036038101906101509190611050565b6108fc565b005b60006020528060005260406000206000915090508060000154908060010180546101809061117c565b80601f01602080910402602001604051908101604052809291908181526020018280546101ac9061117c565b80156101f95780601f106101ce576101008083540402835291602001916101f9565b820191906000526020600020905b8154815290600101906020018083116101dc57829003601f168201915b5050505050908060020154908060030160009054906101000a900460ff16908060040180546102279061117c565b80601f01602080910402602001604051908101604052809291908181526020018280546102539061117c565b80156102a05780601f10610275576101008083540402835291602001916102a0565b820191906000526020600020905b81548152906001019060200180831161028357829003601f168201915b5050505050905085565b6002602052816000526040600020602052806000526040600020600091509150508060000154908060010154908060020180546102e69061117c565b80601f01602080910402602001604051908101604052809291908181526020018280546103129061117c565b801561035f5780601f106103345761010080835404028352916020019161035f565b820191906000526020600020905b81548152906001019060200180831161034257829003601f168201915b5050505050908060030180546103749061117c565b80601f01602080910402602001604051908101604052809291908181526020018280546103a09061117c565b80156103ed5780601f106103c2576101008083540402835291602001916103ed565b820191906000526020600020905b8154815290600101906020018083116103d057829003601f168201915b5050505050908060040180546104029061117c565b80601f016020809104026020016040519081016040528092919081815260200182805461042e9061117c565b801561047b5780601f106104505761010080835404028352916020019161047b565b820191906000526020600020905b81548152906001019060200180831161045e57829003601f168201915b5050505050908060050180546104909061117c565b80601f01602080910402602001604051908101604052809291908181526020018280546104bc9061117c565b80156105095780601f106104de57610100808354040283529160200191610509565b820191906000526020600020905b8154815290600101906020018083116104ec57829003601f168201915b5050505050905086565b600160205280600052604060002060009150905080600001549080600101805461053c9061117c565b80601f01602080910402602001604051908101604052809291908181526020018280546105689061117c565b80156105b55780601f1061058a576101008083540402835291602001916105b5565b820191906000526020600020905b81548152906001019060200180831161059857829003601f168201915b5050505050908060020180546105ca9061117c565b80601f01602080910402602001604051908101604052809291908181526020018280546105f69061117c565b80156106435780601f1061061857610100808354040283529160200191610643565b820191906000526020600020905b81548152906001019060200180831161062657829003601f168201915b5050505050908060030180546106589061117c565b80601f01602080910402602001604051908101604052809291908181526020018280546106849061117c565b80156106d15780601f106106a6576101008083540402835291602001916106d1565b820191906000526020600020905b8154815290600101906020018083116106b457829003601f168201915b5050505050905084565b6000851180156106ec575060008451115b80156106f85750600083115b8015610705575060008151115b610744576040517f08c379a000000000000000000000000000000000000000000000000000000000815260040161073b906111f9565b60405180910390fd5b6040518060a0016040528086815260200185815260200184815260200183600281111561077457610773610b99565b5b8152602001828152506000808781526020019081526020016000206000820151816000015560208201518160010190816107ae91906113c5565b506040820151816002015560608201518160030160006101000a81548160ff021916908360028111156107e4576107e3610b99565b5b021790555060808201518160040190816107fe91906113c5565b509050505050505050565b60008411801561081a575060008351115b8015610827575060008251115b8015610834575060008151115b610873576040517f08c379a000000000000000000000000000000000000000000000000000000000815260040161086a906111f9565b60405180910390fd5b604051806080016040528085815260200184815260200183815260200182815250600160008681526020019081526020016000206000820151816000015560208201518160010190816108c691906113c5565b5060408201518160020190816108dc91906113c5565b5060608201518160030190816108f291906113c5565b5090505050505050565b60008611801561090c5750600085115b8015610919575060008451115b8015610926575060008351115b8015610933575060008251115b8015610940575060008151115b61097f576040517f08c379a0000000000000000000000000000000000000000000000000000000008152600401610976906111f9565b60405180910390fd5b6003600087815260200190815260200160002060008154809291906109a3906114c6565b91905055506040518060c0016040528087815260200186815260200185815260200184815260200183815260200182815250600260008881526020019081526020016000206000600360008a815260200190815260200160002054815260200190815260200160002060008201518160000155602082015181600101556040820151816002019081610a3591906113c5565b506060820151816003019081610a4b91906113c5565b506080820151816004019081610a6191906113c5565b5060a0820151816005019081610a7791906113c5565b50905050505050505050565b6000604051905090565b600080fd5b600080fd5b6000819050919050565b610aaa81610a97565b8114610ab557600080fd5b50565b600081359050610ac781610aa1565b92915050565b600060208284031215610ae357610ae2610a8d565b5b6000610af184828501610ab8565b91505092915050565b610b0381610a97565b82525050565b600081519050919050565b600082825260208201905092915050565b60005b83811015610b43578082015181840152602081019050610b28565b60008484015250505050565b6000601f19601f8301169050919050565b6000610b6b82610b09565b610b758185610b14565b9350610b85818560208601610b25565b610b8e81610b4f565b840191505092915050565b7f4e487b7100000000000000000000000000000000000000000000000000000000600052602160045260246000fd5b60038110610bd957610bd8610b99565b5b50565b6000819050610bea82610bc8565b919050565b6000610bfa82610bdc565b9050919050565b610c0a81610bef565b82525050565b600060a082019050610c256000830188610afa565b8181036020830152610c378187610b60565b9050610c466040830186610afa565b610c536060830185610c01565b8181036080830152610c658184610b60565b90509695505050505050565b60008060408385031215610c8857610c87610a8d565b5b6000610c9685828601610ab8565b9250506020610ca785828601610ab8565b9150509250929050565b600060c082019050610cc66000830189610afa565b610cd36020830188610afa565b8181036040830152610ce58187610b60565b90508181036060830152610cf98186610b60565b90508181036080830152610d0d8185610b60565b905081810360a0830152610d218184610b60565b9050979650505050505050565b6000608082019050610d436000830187610afa565b8181036020830152610d558186610b60565b90508181036040830152610d698185610b60565b90508181036060830152610d7d8184610b60565b905095945050505050565b600080fd5b600080fd5b7f4e487b7100000000000000000000000000000000000000000000000000000000600052604160045260246000fd5b610dca82610b4f565b810181811067ffffffffffffffff82111715610de957610de8610d92565b5b80604052505050565b6000610dfc610a83565b9050610e088282610dc1565b919050565b600067ffffffffffffffff821115610e2857610e27610d92565b5b610e3182610b4f565b9050602081019050919050565b82818337600083830152505050565b6000610e60610e5b84610e0d565b610df2565b905082815260208101848484011115610e7c57610e7b610d8d565b5b610e87848285610e3e565b509392505050565b600082601f830112610ea457610ea3610d88565b5b8135610eb4848260208601610e4d565b91505092915050565b60038110610eca57600080fd5b50565b600081359050610edc81610ebd565b92915050565b600080600080600060a08688031215610efe57610efd610a8d565b5b6000610f0c88828901610ab8565b955050602086013567ffffffffffffffff811115610f2d57610f2c610a92565b5b610f3988828901610e8f565b9450506040610f4a88828901610ab8565b9350506060610f5b88828901610ecd565b925050608086013567ffffffffffffffff811115610f7c57610f7b610a92565b5b610f8888828901610e8f565b9150509295509295909350565b60008060008060808587031215610faf57610fae610a8d565b5b6000610fbd87828801610ab8565b945050602085013567ffffffffffffffff811115610fde57610fdd610a92565b5b610fea87828801610e8f565b935050604085013567ffffffffffffffff81111561100b5761100a610a92565b5b61101787828801610e8f565b925050606085013567ffffffffffffffff81111561103857611037610a92565b5b61104487828801610e8f565b91505092959194509250565b60008060008060008060c0878903121561106d5761106c610a8d565b5b600061107b89828a01610ab8565b965050602061108c89828a01610ab8565b955050604087013567ffffffffffffffff8111156110ad576110ac610a92565b5b6110b989828a01610e8f565b945050606087013567ffffffffffffffff8111156110da576110d9610a92565b5b6110e689828a01610e8f565b935050608087013567ffffffffffffffff81111561110757611106610a92565b5b61111389828a01610e8f565b92505060a087013567ffffffffffffffff81111561113457611133610a92565b5b61114089828a01610e8f565b9150509295509295509295565b7f4e487b7100000000000000000000000000000000000000000000000000000000600052602260045260246000fd5b6000600282049050600182168061119457607f821691505b6020821081036111a7576111a661114d565b5b50919050565b7f416c6c206669656c647320617265206d616e6461746f72790000000000000000600082015250565b60006111e3601883610b14565b91506111ee826111ad565b602082019050919050565b60006020820190508181036000830152611212816111d6565b9050919050565b60008190508160005260206000209050919050565b60006020601f8301049050919050565b600082821b905092915050565b60006008830261127b7fffffffffffffffffffffffffffffffffffffffffffffffffffffffffffffffff8261123e565b611285868361123e565b95508019841693508086168417925050509392505050565b6000819050919050565b60006112c26112bd6112b884610a97565b61129d565b610a97565b9050919050565b6000819050919050565b6112dc836112a7565b6112f06112e8826112c9565b84845461124b565b825550505050565b600090565b6113056112f8565b6113108184846112d3565b505050565b5b81811015611334576113296000826112fd565b600181019050611316565b5050565b601f8211156113795761134a81611219565b6113538461122e565b81016020851015611362578190505b61137661136e8561122e565b830182611315565b50505b505050565b600082821c905092915050565b600061139c6000198460080261137e565b1980831691505092915050565b60006113b5838361138b565b9150826002028217905092915050565b6113ce82610b09565b67ffffffffffffffff8111156113e7576113e6610d92565b5b6113f1825461117c565b6113fc828285611338565b600060209050601f83116001811461142f576000841561141d578287015190505b61142785826113a9565b86555061148f565b601f19841661143d86611219565b60005b8281101561146557848901518255600182019150602085019450602081019050611440565b86831015611482578489015161147e601f89168261138b565b8355505b6001600288020188555050505b505050505050565b7f4e487b7100000000000000000000000000000000000000000000000000000000600052601160045260246000fd5b60006114d182610a97565b91507fffffffffffffffffffffffffffffffffffffffffffffffffffffffffffffffff820361150357611502611497565b5b60018201905091905056fea2646970667358221220ab026fc6b6fd255d68db95f66ed34b258d3b2201cac3264ee2edf153690e0ad864736f6c63430008120033",
  "linkReferences": {},
  "deployedLinkReferences": {}
}