{
  "_format": "hh-sol-artifact-1",
  "contractName": "VaccinationLog",
  "sourceName": "contracts/VaccinationLog.sol",
  "abi": [
    {
      "inputs": [
        {
          "internalType": "uint256",
          "name": "",
          "type": "uint256"
        }
      ],
      "name": "PatientUID",
      "outputs": [
        {
          "internalType": "uint256",
          "name": "id",
          "type": "uint256"
        },
        {
          "internalType": "string",
          "name": "name",
          "type": "string"
        },
        {
          "internalType": "uint256",
          "name": "age",
          "type": "uint256"
        },
        {
          "internalType": "enum VaccinationLog.Sex",
          "name": "gender",
          "type": "uint8"
        },
        {
          "internalType": "string",
          "name": "location",
          "type": "string"
        }
      ],
      "stateMutability": "view",
      "type": "function"
    },
    {
      "inputs": [
        {
          "internalType": "uint256",
          "name": "id",
          "type": "uint256"
        },
        {
          "internalType": "string",
          "name": "name",
          "type": "string"
        },
        {
          "internalType": "uint256",
          "name": "age",
          "type": "uint256"
        },
        {
          "internalType": "enum VaccinationLog.Sex",
          "name": "gender",
          "type": "uint8"
        },
        {
          "internalType": "string",
          "name": "location",
          "type": "string"
        }
      ],
      "name": "createPatient",
      "outputs": [],
      "stateMutability": "nonpayable",
      "type": "function"
    },
    {
      "inputs": [
        {
          "internalType": "uint256",
          "name": "patientId",
          "type": "uint256"
        },
        {
          "internalType": "uint256",
          "name": "vaccineCount",
          "type": "uint256"
        }
      ],
      "name": "getVaccineDetails",
      "outputs": [
        {
          "internalType": "uint256",
          "name": "patientUID",
          "type": "uint256"
        },
        {
          "internalType": "string",
          "name": "patientName",
          "type": "string"
        },
        {
          "internalType": "uint256",
          "name": "patientAge",
          "type": "uint256"
        },
        {
          "internalType": "enum VaccinationLog.Sex",
          "name": "patientGender",
          "type": "uint8"
        },
        {
          "internalType": "string",
          "name": "patientLocation",
          "type": "string"
        },
        {
          "internalType": "string",
          "name": "vaccinatedFor",
          "type": "string"
        },
        {
          "internalType": "string",
          "name": "vaccineName",
          "type": "string"
        },
        {
          "internalType": "string",
          "name": "vaccineManufacturer",
          "type": "string"
        },
        {
          "internalType": "string",
          "name": "vaccineBatchId",
          "type": "string"
        },
        {
          "internalType": "string",
          "name": "vaccineBottleNumber",
          "type": "string"
        },
        {
          "internalType": "string",
          "name": "vaccinatedDate",
          "type": "string"
        },
        {
          "internalType": "string",
          "name": "vaccinatorId",
          "type": "string"
        }
      ],
      "stateMutability": "view",
      "type": "function"
    },
    {
      "inputs": [
        {
          "internalType": "uint256",
          "name": "patientUID",
          "type": "uint256"
        },
        {
          "internalType": "string",
          "name": "vaccinatedFor",
          "type": "string"
        },
        {
          "internalType": "string",
          "name": "vaccineName",
          "type": "string"
        },
        {
          "internalType": "string",
          "name": "vaccineManufacturer",
          "type": "string"
        },
        {
          "internalType": "string",
          "name": "vaccineBatchId",
          "type": "string"
        },
        {
          "internalType": "string",
          "name": "vaccineBottleNumber",
          "type": "string"
        },
        {
          "internalType": "string",
          "name": "vaccinatedDate",
          "type": "string"
        },
        {
          "internalType": "string",
          "name": "vaccinatorId",
          "type": "string"
        }
      ],
      "name": "setVaccineData",
      "outputs": [],
      "stateMutability": "nonpayable",
      "type": "function"
    }
  ],
  "bytecode": "0x608060405234801561001057600080fd5b5061152a806100206000396000f3fe608060405234801561001057600080fd5b506004361061004c5760003560e01c806311e8374c146100515780632b4fbb481461006d578063849f1271146100a1578063ed773f04146100bd575b600080fd5b61006b60048036038101906100669190610c95565b6100f8565b005b61008760048036038101906100829190610e0f565b610245565b604051610098959493929190610f41565b60405180910390f35b6100bb60048036038101906100b69190610fc7565b610398565b005b6100d760048036038101906100d2919061107a565b61045d565b6040516100ef9c9b9a999897969594939291906110ba565b60405180910390f35b6001600260008a8152602001908152602001600020600082825461011c91906111e2565b9250508190555060405180610100016040528089815260200188815260200187815260200186815260200185815260200184815260200183815260200182815250600160008a81526020019081526020016000206000600260008c81526020019081526020016000205481526020019081526020016000206000820151816000015560208201518160010190816101b39190611422565b5060408201518160020190816101c99190611422565b5060608201518160030190816101df9190611422565b5060808201518160040190816101f59190611422565b5060a082015181600501908161020b9190611422565b5060c08201518160060190816102219190611422565b5060e08201518160070190816102379190611422565b509050505050505050505050565b600060205280600052604060002060009150905080600001549080600101805461026e90611245565b80601f016020809104026020016040519081016040528092919081815260200182805461029a90611245565b80156102e75780601f106102bc576101008083540402835291602001916102e7565b820191906000526020600020905b8154815290600101906020018083116102ca57829003601f168201915b5050505050908060020154908060030160009054906101000a900460ff169080600401805461031590611245565b80601f016020809104026020016040519081016040528092919081815260200182805461034190611245565b801561038e5780601f106103635761010080835404028352916020019161038e565b820191906000526020600020905b81548152906001019060200180831161037157829003601f168201915b5050505050905085565b6040518060a001604052808681526020018581526020018481526020018360028111156103c8576103c7610eca565b5b8152602001828152506000808781526020019081526020016000206000820151816000015560208201518160010190816104029190611422565b506040820151816002015560608201518160030160006101000a81548160ff0219169083600281111561043857610437610eca565b5b021790555060808201518160040190816104529190611422565b509050505050505050565b60006060600080606080606080606080606080600160008f815260200190815260200160002060008e8152602001908152602001600020600001549b506000808f815260200190815260200160002060010180546104ba90611245565b80601f01602080910402602001604051908101604052809291908181526020018280546104e690611245565b80156105335780601f1061050857610100808354040283529160200191610533565b820191906000526020600020905b81548152906001019060200180831161051657829003601f168201915b50505050509a506000808f81526020019081526020016000206002015499506000808f815260200190815260200160002060030160009054906101000a900460ff1698506000808f8152602001908152602001600020600401805461059790611245565b80601f01602080910402602001604051908101604052809291908181526020018280546105c390611245565b80156106105780601f106105e557610100808354040283529160200191610610565b820191906000526020600020905b8154815290600101906020018083116105f357829003601f168201915b50505050509750600160008f815260200190815260200160002060008e8152602001908152602001600020600101805461064990611245565b80601f016020809104026020016040519081016040528092919081815260200182805461067590611245565b80156106c25780601f10610697576101008083540402835291602001916106c2565b820191906000526020600020905b8154815290600101906020018083116106a557829003601f168201915b50505050509650600160008f815260200190815260200160002060008e815260200190815260200160002060020180546106fb90611245565b80601f016020809104026020016040519081016040528092919081815260200182805461072790611245565b80156107745780601f1061074957610100808354040283529160200191610774565b820191906000526020600020905b81548152906001019060200180831161075757829003601f168201915b50505050509550600160008f815260200190815260200160002060008e815260200190815260200160002060030180546107ad90611245565b80601f01602080910402602001604051908101604052809291908181526020018280546107d990611245565b80156108265780601f106107fb57610100808354040283529160200191610826565b820191906000526020600020905b81548152906001019060200180831161080957829003601f168201915b50505050509450600160008f815260200190815260200160002060008e8152602001908152602001600020600401805461085f90611245565b80601f016020809104026020016040519081016040528092919081815260200182805461088b90611245565b80156108d85780601f106108ad576101008083540402835291602001916108d8565b820191906000526020600020905b8154815290600101906020018083116108bb57829003601f168201915b50505050509350600160008f815260200190815260200160002060008e8152602001908152602001600020600501805461091190611245565b80601f016020809104026020016040519081016040528092919081815260200182805461093d90611245565b801561098a5780601f1061095f5761010080835404028352916020019161098a565b820191906000526020600020905b81548152906001019060200180831161096d57829003601f168201915b50505050509250600160008f815260200190815260200160002060008e815260200190815260200160002060060180546109c390611245565b80601f01602080910402602001604051908101604052809291908181526020018280546109ef90611245565b8015610a3c5780601f10610a1157610100808354040283529160200191610a3c565b820191906000526020600020905b815481529060010190602001808311610a1f57829003601f168201915b50505050509150600160008f815260200190815260200160002060008e81526020019081526020016000206007018054610a7590611245565b80601f0160208091040260200160405190810160405280929190818152602001828054610aa190611245565b8015610aee5780601f10610ac357610100808354040283529160200191610aee565b820191906000526020600020905b815481529060010190602001808311610ad157829003601f168201915b505050505090509295989b509295989b509295989b565b6000604051905090565b600080fd5b600080fd5b6000819050919050565b610b2c81610b19565b8114610b3757600080fd5b50565b600081359050610b4981610b23565b92915050565b600080fd5b600080fd5b6000601f19601f8301169050919050565b7f4e487b7100000000000000000000000000000000000000000000000000000000600052604160045260246000fd5b610ba282610b59565b810181811067ffffffffffffffff82111715610bc157610bc0610b6a565b5b80604052505050565b6000610bd4610b05565b9050610be08282610b99565b919050565b600067ffffffffffffffff821115610c0057610bff610b6a565b5b610c0982610b59565b9050602081019050919050565b82818337600083830152505050565b6000610c38610c3384610be5565b610bca565b905082815260208101848484011115610c5457610c53610b54565b5b610c5f848285610c16565b509392505050565b600082601f830112610c7c57610c7b610b4f565b5b8135610c8c848260208601610c25565b91505092915050565b600080600080600080600080610100898b031215610cb657610cb5610b0f565b5b6000610cc48b828c01610b3a565b985050602089013567ffffffffffffffff811115610ce557610ce4610b14565b5b610cf18b828c01610c67565b975050604089013567ffffffffffffffff811115610d1257610d11610b14565b5b610d1e8b828c01610c67565b965050606089013567ffffffffffffffff811115610d3f57610d3e610b14565b5b610d4b8b828c01610c67565b955050608089013567ffffffffffffffff811115610d6c57610d6b610b14565b5b610d788b828c01610c67565b94505060a089013567ffffffffffffffff811115610d9957610d98610b14565b5b610da58b828c01610c67565b93505060c089013567ffffffffffffffff811115610dc657610dc5610b14565b5b610dd28b828c01610c67565b92505060e089013567ffffffffffffffff811115610df357610df2610b14565b5b610dff8b828c01610c67565b9150509295985092959890939650565b600060208284031215610e2557610e24610b0f565b5b6000610e3384828501610b3a565b91505092915050565b610e4581610b19565b82525050565b600081519050919050565b600082825260208201905092915050565b60005b83811015610e85578082015181840152602081019050610e6a565b60008484015250505050565b6000610e9c82610e4b565b610ea68185610e56565b9350610eb6818560208601610e67565b610ebf81610b59565b840191505092915050565b7f4e487b7100000000000000000000000000000000000000000000000000000000600052602160045260246000fd5b60038110610f0a57610f09610eca565b5b50565b6000819050610f1b82610ef9565b919050565b6000610f2b82610f0d565b9050919050565b610f3b81610f20565b82525050565b600060a082019050610f566000830188610e3c565b8181036020830152610f688187610e91565b9050610f776040830186610e3c565b610f846060830185610f32565b8181036080830152610f968184610e91565b90509695505050505050565b60038110610faf57600080fd5b50565b600081359050610fc181610fa2565b92915050565b600080600080600060a08688031215610fe357610fe2610b0f565b5b6000610ff188828901610b3a565b955050602086013567ffffffffffffffff81111561101257611011610b14565b5b61101e88828901610c67565b945050604061102f88828901610b3a565b935050606061104088828901610fb2565b925050608086013567ffffffffffffffff81111561106157611060610b14565b5b61106d88828901610c67565b9150509295509295909350565b6000806040838503121561109157611090610b0f565b5b600061109f85828601610b3a565b92505060206110b085828601610b3a565b9150509250929050565b6000610180820190506110d0600083018f610e3c565b81810360208301526110e2818e610e91565b90506110f1604083018d610e3c565b6110fe606083018c610f32565b8181036080830152611110818b610e91565b905081810360a0830152611124818a610e91565b905081810360c08301526111388189610e91565b905081810360e083015261114c8188610e91565b90508181036101008301526111618187610e91565b90508181036101208301526111768186610e91565b905081810361014083015261118b8185610e91565b90508181036101608301526111a08184610e91565b90509d9c50505050505050505050505050565b7f4e487b7100000000000000000000000000000000000000000000000000000000600052601160045260246000fd5b60006111ed82610b19565b91506111f883610b19565b92508282019050808211156112105761120f6111b3565b5b92915050565b7f4e487b7100000000000000000000000000000000000000000000000000000000600052602260045260246000fd5b6000600282049050600182168061125d57607f821691505b6020821081036112705761126f611216565b5b50919050565b60008190508160005260206000209050919050565b60006020601f8301049050919050565b600082821b905092915050565b6000600883026112d87fffffffffffffffffffffffffffffffffffffffffffffffffffffffffffffffff8261129b565b6112e2868361129b565b95508019841693508086168417925050509392505050565b6000819050919050565b600061131f61131a61131584610b19565b6112fa565b610b19565b9050919050565b6000819050919050565b61133983611304565b61134d61134582611326565b8484546112a8565b825550505050565b600090565b611362611355565b61136d818484611330565b505050565b5b818110156113915761138660008261135a565b600181019050611373565b5050565b601f8211156113d6576113a781611276565b6113b08461128b565b810160208510156113bf578190505b6113d36113cb8561128b565b830182611372565b50505b505050565b600082821c905092915050565b60006113f9600019846008026113db565b1980831691505092915050565b600061141283836113e8565b9150826002028217905092915050565b61142b82610e4b565b67ffffffffffffffff81111561144457611443610b6a565b5b61144e8254611245565b611459828285611395565b600060209050601f83116001811461148c576000841561147a578287015190505b6114848582611406565b8655506114ec565b601f19841661149a86611276565b60005b828110156114c25784890151825560018201915060208501945060208101905061149d565b868310156114df57848901516114db601f8916826113e8565b8355505b6001600288020188555050505b50505050505056fea2646970667358221220819c8330477fec6259d3908c7544e12f29bd273e9e92231325fe2640873486e864736f6c63430008120033",
  "linkReferences": {},
  "deployedLinkReferences": {}
}